:100000000C943D010C945C010C945C010C945C011B
:100010000C945C010C945C010C945C010C945C01EC
:100020000C945C010C945C010C945C010C945C01DC
:100030000C945C010C94D7060C945C010C945C014C
:100040000C945C010C945C010C945C010C945C01BC
:100050000C945C010C945C010C945C010C945C01AC
:100060000C945C010C945C010C945C010C945C019C
:100070000C945C010C945C010C945C010C945C018C
:100080000C945C010C945C010C945C01C8036C033F
:100090008903B703AE03B703B103000000000000FB
:1000A000005F00000007000700147F147F14242A5B
:1000B0007F2A122313086462364955225000050333
:1000C0000000001C2241000041221C0014083E08D0
:1000D0001408083E08080050300000080808080806
:1000E000006060000020100804023E5149453E00B7
:1000F000427F400042615149462141454B3118142D
:10010000127F1027454545393C4A4949300171095C
:1001100005033649494936064949291E0036360045
:100120000000563600000814224100141414141460
:1001300000412214080201510906324979413E7EEC
:100140001111117E7F494949363E414141227F418B
:1001500041221C7F494949417F090909013E414922
:10016000497A7F0808087F00417F41002040413FD5
:10017000017F081422417F404040407F020C027FF3
:100180007F0408107F3E4141413E7F090909063E38
:100190004151215E7F0919294646494949310101EA
:1001A0007F01013F4040403F1F2040201F3F40381B
:1001B000403F6314081463070870080761514945FC
:1001C00043007F41410002040810200041417F00AC
:1001D00004020102044040404040000102040020AB
:1001E000545454787F484444383844444420384474
:1001F00044487F3854545418087E0901020C525266
:10020000523E7F0804047800447D40002040443D75
:10021000007F1028440000417F40007C04180478CF
:100220007C0804047838444444387C1414140808C6
:100230001414187C7C080404084854545420043FC7
:100240004440203C4040207C1C2040201C3C40304E
:10025000403C44281028440C5050503C4464544CBA
:1002600044000836410000007F00000041360800CD
:100270001008081008000000000011241FBECFEF76
:10028000D0E4DEBFCDBF12E0A0E0B1E0E8EDF0E1E8
:1002900000E00BBF02C007900D92AA31B107D9F759
:1002A00014E0AAE1B2E001C01D92A136B107E1F766
:1002B0000E9453070C946A080C94000040E050E040
:1002C0000CC000002F5F3F4F02C020E030E027301D
:1002D00063E03607B4F34F5F5F4F48175907ACF33D
:1002E00008955E9888B95F9A00005F9882E090E078
:1002F0000E945E01089581E00E947101089581319C
:1003000020F481580E947101089581550E94710165
:10031000089584E690E00E945E0188E30E947101E6
:1003200086E00E9471018FE00E94710181E00E94CD
:1003300071018AE090E00E945E0108955E9A88B99A
:100340005F9A00005F9881E090E00E945E0108954E
:10035000EF92FF920F931F93CF93DF93182FEB0130
:100360000E947B010EC001E0010F812F0E947F01DE
:100370007E018FEFE81AF80A88810E949E01102FF3
:10038000E70188818111EFCFDF91CF911F910F910C
:10039000FF90EF9008950F931F93CF93883090F4C0
:1003A0008B01880F880F880F805C0E947101C0E06C
:1003B00007C0F801EC0FF11D80810E949E01CF5F04
:1003C000C830B8F3CF911F910F9108951498662308
:1003D00019F0129A90E015C01298FCCF47E050E057
:1003E000491B5109282F30E002C0359527954A95C1
:1003F000E2F720FF02C0119A01C01198109A1098DC
:100400009F5F983058F3149A089560E00E94E601C7
:10041000089561E00E94E6010895CF93DF930C9A5E
:100420000B9A0A9A099A089A139A149A83EC99E0FB
:100430000197F1F700C0000013988BE594E4019751
:10044000F1F700C00000139A149881E20E9405029F
:1004500083E10E94050286E00E94050282EC0E9470
:10046000050280E20E94050289E00E94050280E800
:100470000E94050280E40E940502C0E0D0E004C0B2
:1004800080E00E9409022196C83F91E0D907C0F39D
:1004900088E00E9405028CE00E940502DF91CF9166
:1004A000089580E80E94050280E40E9405021092EF
:1004B00012041092130480E090E005C0FC01E65E97
:1004C000FD4F10820196883F21E09207B8F308950E
:1004D000882311F080E201C084E20E9405020895A1
:1004E000262F26952695269590E034E5239F800DAE
:1004F000911D1124442379F0677021E030E002C09F
:10050000220F331F6A95E2F7FC01E65EFD4F808102
:10051000282B20830895677021E030E002C0220F6D
:10052000331F6A95E2F7FC01E65EFD4F209580815E
:10053000282320830895EF92FF920F931F93CF9368
:10054000DF93E82EF62E00E047C02E2D332727FD3F
:10055000309520523109802F6F2D0E940908F90132
:10056000EE0FFF1FEE0FFF1FE20FF31FE80FF11D4D
:10057000E656FF4FE491812F0E940908F0E002C087
:10058000F595E7958A95E2F7E0FF0AC060911304BC
:1005900080911204610F41E0800F0E94700209C037
:1005A0006091130480911204610F40E0800F0E945B
:1005B00070021F5F01C010E0212F30E0CE01880FD4
:1005C000991F880F991F880F991F8C1B9D0B281747
:1005D00039070CF4BACF0F5F202F30E0CF2DD0E0D9
:1005E000CE01880F991F880F991F8C0F9D1F281708
:1005F00039070CF3E2E1F4E08F2D880F880F8F0D9F
:100600009081890F8F5F8083843570F0109212047F
:10061000E3E1F4E08F2D880F880F880F982F9F1942
:100620008081890F8F5F808380911304803320F055
:100630001092120410921304DF91CF911F910F9129
:10064000FF90EF9008951F93CF93DF93EC01162F47
:1006500004C02196612F0E949B0288818111F9CFED
:10066000DF91CF911F91089580931204609313043A
:100670000895CF93DF9380E80E94050280E40E94F2
:100680000502C0E0D0E007C0FE01E65EFD4F8081BC
:100690000E9409022196C83F81E0D807A8F3DF91A4
:1006A000CF910895CF93C82F8A3019F48DE00E941E
:1006B00052039091C00095FFFCCFC093C60080E02C
:1006C00090E0CF9108958730910508F04DC0FC016E
:1006D000EA5BFF4F0C94370823B130E0209530954A
:1006E0002F7033272130310551F023B130E02095B0
:1006F00030952F7033272230310509F049C0209101
:100700002701203308F444C020912601213390F5BD
:100710003FC023B130E0209530952F703327213032
:10072000310549F423B130E0209530952F703327FF
:100730002230310511F523B130E0209530952F702E
:1007400033272130310521F123B130E02095309558
:100750002F70332722303105D9F412C0189913C0F5
:1007600017C0199913C014C080E090E011C081E057
:1007700090E00EC082E090E00BC084E090E008C002
:1007800086E090E005C083E090E002C085E090E064
:1007900083309105D1F08530910519F0009759F516
:1007A00028C020912601203349F4209127012150AF
:1007B0002093270129E32093260103C02150209391
:1007C000260121E12093250108952091260120335F
:1007D00049F42091270121502093270129E32093F8
:1007E000260103C021502093260121E020932501FA
:1007F000089581E090E00895EF92FF920F931F9388
:10080000CF93DF937C0182E0E816F10409F441C044
:1008100044F4E114F10479F081E0E816F10481F088
:1008200035C084E0E816F104E1F094F085E0E816C4
:10083000F104F9F02BC06894EE24E1F8F12C49C0E2
:100840001A9B2BC01A9B45C0199B43C083B141C062
:1008500080912B018033E9F580912A018033C9F51D
:1008600022C01A9B25C01A9B34C0199B32C083B189
:1008700030C01A9B2EC01A9B21C0199B25C083B182
:100880000F2EF3E0EF2EF12CF02D23C0E12CF12CF4
:1008900020C0EE24E394F12C1CC00F2EF5E0EF2EC7
:1008A000F12CF02D16C06894EE24E2F8F12C11C062
:1008B0000F2EF5E0EF2EF12CF02D0BC00F2EF3E0F4
:1008C000EF2EF12CF02D05C00F2EF3E0EF2EF12CC2
:1008D000F02D83E0E816F10409F44DC04CF481E0FA
:1008E000E816F10429F182E0E816F10461F09FC0F6
:1008F00084E0E816F10409F472C085E0E816F1041A
:1009000009F47FC094C081E180933E04E8E7F1E000
:10091000AFE3B4E001900D928A95E1F781E1E8E759
:10092000F1E0A0E5B4E001900D928A95E1F77FC077
:100930000E947B0160E071E082E00E94A80177C024
:10094000D1E0DC0F8D2F0E947F010C2F10E0F80109
:10095000E15CFB4F808190E00E949E0181E18C0F61
:100960000E947F01F801E05BFB4F808190E00E94D4
:100970009E01CD2F01C0C0E0C03110F38091250150
:100980000E947F0180E090E00E949E01C0913E04A1
:10099000C93110F54FE050E060E474E08FE394E07B
:1009A0000E9440080C2F10E0F801E25AFE4F8081AF
:1009B00080934E044FE050E061E574E080E594E000
:1009C0000E944008F801EC5BFE4F808180935F0439
:1009D000CF5FC0933E042BC010923E0428C00E94FB
:1009E0007B0169E871E081E00E94A80110923E0459
:1009F00040E150E06EE571E08FE394E00E94520820
:100A000016C00E947B0181E180933E04E8E7F1E09B
:100A1000AFE3B4E001900D928A95E1F781E1E8E758
:100A2000F1E0A0E5B4E001900D928A95E1F7C701ED
:100A3000DF91CF911F910F91FF90EF900895CF9389
:100A4000DF93EC0182309105D1F034F4009761F02E
:100A50008130910561F043C08430910591F124F11A
:100A60008530910599F13BC0C1E0D0E043C01A9BAD
:100A700039C01A9B3FC0199B3DC083B13BC08091D8
:100A80002A01803321F480912B01803371F1809110
:100A90001704882329F010921704C3E0D0E02AC07D
:100AA0008F5F8093170426C080911604882329F055
:100AB00010921604C2E0D0E01DC08F5F8093160430
:100AC00019C01A9917C0C5E0D0E014C01A9B12C013
:100AD0001A9B10C0199B0EC018990AC00BC0C0E029
:100AE000D0E008C0C5E0D0E005C0C4E0D0E002C05E
:100AF000C2E0D0E0C330D105E1F124F4C130D1052A
:100B000051F015C1C430D10509F4CCC0C530D105B0
:100B100009F4E4C00CC10E94510261E08AE991E04D
:100B20000E9423036AE080E00E94340361E088EAC7
:100B300091E00E94230364E180E00E94340361E0BD
:100B400086EB91E00E9423036EE180E00E94340373
:100B500061E085EC91E00E94230368E280E00E945E
:100B6000340361E084ED91E00E9423030E94390385
:100B7000DEC080911404909115048230910588F0B4
:100B800020912A01203369F4109215041092140464
:100B900080912B01815080932B0189E380932A015E
:100BA00014C08230910560F020912A01203341F079
:100BB0001092150410921404215020932A0105C0AC
:100BC0000196909315048093140480912801893331
:100BD00049F4809129018F5F8093290180E38093FC
:100BE000280105C0893319F08F5F809328010E9486
:100BF000510261E083EE91E00E94230360E082E312
:100C00000E94340361E0809129010E949B0260E010
:100C100088E30E94340361E0809128010E949B02D6
:100C20006FE080E00E94340361E08AEE91E00E9470
:100C300023036FE082E30E94340361E08091270187
:100C40000E949B026FE088E30E94340361E0809180
:100C500026010E949B026EE180E00E94340361E065
:100C600081EF91E00E9423036EE182E30E9434034E
:100C700061E080912B010E949B026EE188E30E945B
:100C8000340361E080912A010E949B020E94390393
:100C90002FE788E391E0215080409040E1F700C0C9
:100CA000000045C00E94510261E088EF91E00E947F
:100CB00023036AE089E10E94340362E08091290104
:100CC0000E949B026AE088E20E94340362E0809105
:100CD00028010E949B020E94390329C00E945102F0
:100CE00061E085E092E00E9423036AE084E10E94D3
:100CF000340362E080E192E00E9423036EE189E127
:100D00000E94340362E086E192E00E9423030E9485
:100D1000390381E380932B0180E380932A011092B1
:100D20001704109216041092150410921404CE01A8
:100D3000DF91CF91089560932C0170932D018093E2
:100D40002E0190932F0160931804709319048093DF
:100D50001A0490931B0408958BE0809381008DE723
:100D600090E0909389008093880082E080936F00E8
:100D7000109285001092840080912C0190912D0199
:100D8000A0912E01B0912F01809318049093190423
:100D9000A0931A04B0931B048FB780688FBF089587
:100DA00010928100089581E080931C0408951F92A1
:100DB0000F920FB60F9211240BB60F922F933F9301
:100DC0004F935F936F937F938F939F93AF93BF9353
:100DD000EF93FF938091180490911904A0911A0445
:100DE000B0911B040197A109B10980931804909355
:100DF0001904A0931A04B0931B04892B8A2B8B2B04
:100E000091F40E94D30680912C0190912D01A09124
:100E10002E01B0912F018093180490931904A09390
:100E20001A04B0931B04FF91EF91BF91AF919F9172
:100E30008F917F916F915F914F913F912F910F9083
:100E40000BBE0F900FBE0F901F9018950F931F931E
:100E5000CF93DF93B62FA72FF82FE92F022F132F51
:100E6000D42FC52F04C0062F172FD82FC92F6B2FB3
:100E70007A2F8F2F9E2F202F312F4D2F5C2F0E94E6
:100E80001508B02FA12FFD2FEC2F611571058105DD
:100E9000910549F7602F712F8D2F9C2FDF91CF91F6
:100EA0001F910F910895CF93DF9300D000D000D011
:100EB000CDB7DEB78FEF81B912B814B885B987B94D
:100EC00018B88AB91BB886E0EEE3F1E0DE011196AE
:100ED00001900D928A95E1F7E3E3F4E0108289E155
:100EE00090E0A0E0B0E081839283A383B483858304
:100EF0009683A783B08783E693E092878187E8E2B1
:100F0000F4E0108286E990E0A0E0B0E08183928373
:100F1000A383B48385839683A783B0878CEF93E004
:100F200092878187EDE1F4E0108284E690E0A0E012
:100F3000B0E081839283A383B48385839683A78360
:100F4000B0878FE195E0928781870E940D020E9411
:100F5000890161E070E080E090E00E949B060E94C1
:100F6000AC066DE171E080E090E00E94CB0165E1AC
:100F700071E081E090E00E94CB016DE071E082E0E1
:100F800090E00E94CB01E12CF12C38C0F701EE0F6C
:100F9000FF1FEC0FFD1F01811281D80115964D91A5
:100FA0005D916D917C91189711968D919D910D9009
:100FB000BC91A02D481759076A077B0781F4D80117
:100FC0001996ED91FC911A978C91992787FD909530
:100FD0000995F80180831582168217821086F80120
:100FE00085819681A781B0850196A11DB11D85835C
:100FF0009683A783B087FFEFEF1AFF0A83E0E81616
:10100000F10420F280911C048823E1F310921C0467
:10101000BACF991B79E004C0991F961708F0961B68
:10102000881F7A95C9F780950895A1E21A2EAA1B08
:10103000BB1BFD010DC0AA1FBB1FEE1FFF1FA21788
:10104000B307E407F50720F0A21BB30BE40BF50B85
:10105000661F771F881F991F1A9469F7609570950E
:10106000809590959B01AC01BD01CF010895EE0FD5
:10107000FF1F0024001C0BBE0790F691E02D099481
:101080006817790768F4FB01DC01E40FF51FA40F72
:10109000B51F02C002900E9241505040D8F70895FB
:1010A0000C946108FB01DC014150504048F0019074
:1010B0000D920020C9F701C01D9241505040E0F749
:1010C0000895FB01DC0102C001900D924150504097
:0810D000D8F70895F894FFCF52
:1010D80046495348205448494546000000111F0E10
:1010E800041F150E1B040A111515110A04180C16F5
:1010F8001D1F160C1811353030303031010000003A
:101108000000000200000000520300000000330449
:1011180028041D0420202020202A202020202020F0
:10112800202A202020202020202A202020202020A3
:101138002020202A202020202020202A2020202093
:101148002020202A2020202020202020202020208D
:1011580020202020202020200049542753204F56AB
:10116800455220464F522055210047656D3A2020B0
:10117800202B3120706E740044656D6F6E3A202DFF
:101188003120706E7400537461723A20202B352020
:101198005354414D004250726573733A202D3120EB
:1011A80053544D0050524553532052454420425504
:1011B80054540053434F523A20005354414D3A205F
:1011C8000054494D453A200046494E414C2053436E
:1011D8004F52453A00596F752072656164793F0036
:0A11E8004C4554277300474F2100C7
:00000001FF
