:100000000C944C010C946B010C946B010C946B01DF
:100010000C946B010C946B010C946B010C946B01B0
:100020000C946B010C946B010C946B010C946B01A0
:100030000C946B010C949C080C946B010C946B0158
:100040000C946B010C946B010C946B010C946B0180
:100050000C946B010C946B010C946B010C946B0170
:100060000C946B010C946B010C946B010C946B0160
:100070000C946B010C946B010C946B010C946B0150
:100080000C946B010C946B010C946B01E1037B03EA
:100090009C03CA03C103CA03C40356055C05690572
:1000A00095056E057B0585057706BE067A068206F0
:1000B00085069C06AB06B206000000000000005F4B
:1000C00000000007000700147F147F14242A7F2AF1
:1000D00012231308646236495522500005030000BC
:1000E000001C2241000041221C0014083E08140894
:1000F000083E0808005030000008080808080060A2
:1001000060000020100804023E5149453E00427F35
:10011000400042615149462141454B311814127F3C
:100120001027454545393C4A4949300171090503C5
:100130003649494936064949291E0036360000002D
:1001400056360000081422410014141414140041FF
:100150002214080201510906324979413E7E1111EB
:10016000117E7F494949363E414141227F4141222A
:100170001C7F494949417F090909013E4149497AA2
:100180007F0808087F00417F41002040413F017FF8
:10019000081422417F404040407F020C027F7F04D0
:1001A00008107F3E4141413E7F090909063E415109
:1001B000215E7F09192946464949493101017F01DC
:1001C000013F4040403F1F2040201F3F4038403FFC
:1001D0006314081463070870080761514945430018
:1001E0007F41410002040810200041417F000402C9
:1001F00001020440404040400001020400205454E9
:1002000054787F484444383844444420384444486F
:100210007F3854545418087E0901020C5252523E41
:100220007F0804047800447D40002040443D007F66
:100230001028440000417F40007C041804787C08AA
:1002400004047838444444387C1414140808141402
:10025000187C7C080404084854545420043F44404B
:10026000203C4040207C1C2040201C3C4030403C36
:1002700044281028440C5050503C4464544C4400D2
:100280000836410000007F000000413608001008D9
:10029000081008000000000011241FBECFEFD0E4BA
:1002A000DEBFCDBF12E0A0E0B1E0E8E7F4E100E09E
:1002B0000BBF02C007900D92A236B107D9F714E028
:1002C000A2E6B2E001C01D92A93BB107E1F70E948E
:1002D00018090C943A0A0C94000040E050E00CC05D
:1002E00000002F5F3F4F02C020E030E0273063E086
:1002F0003607B4F34F5F5F4F48175907ACF30895C3
:100300005E9888B95F9A00005F9882E090E00E9452
:100310006D01089581E00E9480010895813120F4EB
:1003200081580E948001089581550E94800108959E
:1003300084E690E00E946D0188E30E94800186E0DF
:100340000E9480018FE00E94800181E00E94800174
:100350008AE090E00E946D0108955E9A88B95F9AE4
:1003600000005F9881E090E00E946D010895EF9297
:10037000FF920F931F93CF93DF93182FEB010E94EF
:100380008A010EC001E0010F812F0E948E017E01C3
:100390008FEFE81AF80A88810E94AD01102FE7015B
:1003A00088818111EFCFDF91CF911F910F91FF9045
:1003B000EF9008950F931F93CF93883090F48B01A3
:1003C000880F880F880F805C0E948001C0E007C002
:1003D000F801EC0FF11D80810E94AD01CF5FC830A4
:1003E000B8F3CF911F910F9108951498662319F0D7
:1003F000129A90E015C01298FCCF47E050E0491BDC
:100400005109282F30E002C0359527954A95E2F72B
:1004100020FF02C0119A01C01198109A10989F5F96
:10042000983058F3149A089560E00E94F5010895F9
:1004300061E00E94F5010895CF93DF930C9A0B9A27
:100440000A9A099A089A139A149A83EC99E00197E8
:10045000F1F700C0000013988BE594E40197F1F7E1
:1004600000C00000139A149881E20E94140283E1F4
:100470000E94140286E00E94140282EC0E94140280
:1004800080E20E94140289E00E94140280E80E9427
:10049000140280E40E941402C0E0D0E004C080E0B6
:1004A0000E9418022196C83F91E0D907C0F388E066
:1004B0000E9414028CE00E941402DF91CF910895F3
:1004C00080E80E94140280E40E94140210925A04F0
:1004D00010925B0480E090E005C0FC01EE59FD4FF6
:1004E00010820196883F21E09207B8F3089588238F
:1004F00011F080E201C084E20E9414020895262FC8
:1005000026952695269590E034E5239F800D911D34
:100510001124442379F0677021E030E002C0220FFB
:10052000331F6A95E2F7FC01EE59FD4F8081282BBD
:1005300020830895677021E030E002C0220F331F4E
:100540006A95E2F7FC01EE59FD4F20958081282342
:1005500020830895EF92FF920F931F93CF93DF9321
:10056000E82EF62E00E047C02E2D332727FD3095CC
:1005700020523109802F6F2D0E94E209F901EE0F00
:10058000FF1FEE0FFF1FE20FF31FE80FF11DE854EE
:10059000FF4FE491812F0E94E209F0E002C0F5953F
:1005A000E7958A95E2F7E0FF0AC060915B048091CD
:1005B0005A04610F41E0800F0E947F0209C06091E0
:1005C0005B0480915A04610F40E0800F0E947F021B
:1005D0001F5F01C010E0212F30E0CE01880F991F6E
:1005E000880F991F880F991F8C1B9D0B281739079F
:1005F0000CF4BACF0F5F202F30E0CF2DD0E0CE012A
:10060000880F991F880F991F8C0F9D1F2817390776
:100610000CF3EAE5F4E08F2D880F880F8F0D9081A1
:10062000890F8F5F8083843570F010925A04EBE558
:10063000F4E08F2D880F880F880F982F9F198081E5
:10064000890F8F5F808380915B04803320F010924C
:100650005A0410925B04DF91CF911F910F91FF908C
:10066000EF9008951F93CF93DF93EC01162F04C0F2
:100670002196612F0E94AA0288818111F9CFDF9112
:10068000CF911F91089580935A0460935B0408955D
:10069000CF93DF9380E80E94140280E40E9414024A
:1006A000C0E0D0E007C0FE01EE59FD4F80810E94FE
:1006B00018022196C83F81E0D807A8F3DF91CF91B7
:1006C0000895CF93C82F8A3019F48DE00E946103FA
:1006D0009091C00095FFFCCFC093C60080E090E0F1
:1006E000CF9108958730910508F051C0FC01EA5B75
:1006F000FF4F0C94100A1B9B50C023B130E0209593
:1007000030952F7033272130310551F023B130E07F
:10071000209530952F7033272230310509F051C0D4
:10072000209133012133E0F5203309F04AC02091B4
:1007300032012133C0F545C023B130E0209530951A
:100740002F7033272130310549F423B130E0209553
:1007500030952F7033272230310541F523B130E039
:10076000209530952F7033272130310551F123B179
:1007700030E0209530952F7033272230310509F570
:1007800018C0189919C01DC0199919C01AC080E065
:1007900090E017C081E090E014C080E090E011C0CC
:1007A00082E090E00EC082E090E00BC084E090E038
:1007B00008C086E090E005C083E090E002C085E0DC
:1007C00090E083309105F9F08530910541F0009774
:1007D00069F581E180932F0181E090E008952091F7
:1007E0003201203349F42091330121502093330109
:1007F00029E32093320103C021502093320121E1EB
:1008000020932F01089520913201203349F4209143
:10081000330121502093330129E32093320103C097
:1008200021502093320121E020932F01089582303E
:10083000910509F45EC034F4009759F081309105B8
:1008400059F054C083309105F1F007970CF451C072
:100850004DC081E090E070C01B9B4EC020916404AD
:10086000203329F430916304303309F465C0213317
:1008700008F045C0203309F05FC0209163042133A4
:1008800008F040C059C01B9B40C020916404203335
:1008900021F4209163042033D9F120919704213071
:1008A00021F430912F013130B1F13091A804313071
:1008B00021F440912F01413189F1223021F44091FE
:1008C0002F01413071F1323021F440912F0141313B
:1008D00059F1233021F420912F01213041F133309F
:1008E00059F520912F01213139F524C080E090E0A5
:1008F00023C083E090E020C080E090E01DC082E053
:1009000090E01AC082E090E017C080E090E014C050
:1009100081E090E011C084E090E00EC084E090E0BF
:100920000BC085E090E008C085E090E005C086E05F
:1009300090E002C086E090E084309105F9F024F464
:100940008230910551F008958530910509F448C031
:100950008630910509F478C0089510925E041092D3
:100960005D0410925C0420E3209335012093340150
:100970002093330125E3209332010895309135010E
:10098000393359F420913401293339F420915E042C
:10099000223018F010925E0408952091340129331A
:1009A00069F440915E04423048F010925E043F5F6B
:1009B0003093350120E3209334010895293351F019
:1009C00030915E04323030F010925E042F5F20933D
:1009D0003401089520915E042F5F20935E040895F2
:1009E00030913501303359F420913401203339F4FA
:1009F00020915D04223018F010925D04089520913A
:100A00003401203379F4313368F040915D04423091
:100A100048F010925D0431503093350129E3209362
:100A200034010895203351F030915D04323030F0BC
:100A300010925D04215020933401089520915D04AB
:100A40002F5F20935D04089520913301293359F4D9
:100A500030915C04323038F010925C042093330102
:100A6000209332010895293350F430915C043230E0
:100A700030F010925C042F5F209333010895209191
:100A80005C042F5F20935C040895EF92FF920F9314
:100A90001F93CF93DF937C0187E0E816F10408F001
:100AA00041C0F701E35BFF4F0C94100A0F2EF3E0F7
:100AB000EF2EF12CF02D60C01A9B3BC01A9B04C096
:100AC000199B02C0189958C01B9956C0E12CF12CF3
:100AD00053C06894EE24E2F8F12C4EC08091640477
:100AE000803321F480916304803349F11B9944C021
:100AF000E12CF12C41C01B9B28C01A9B29C01A9BDA
:100B00003BC0199B39C083B137C01A9B35C01A9BB3
:100B100025C0199B28C018992BC06894EE24E2F8D0
:100B2000F12C2AC0E12CF12C27C0EE24E394F12C07
:100B300023C00F2EF6E0EF2EF12CF02D1DC00F2E4E
:100B4000F5E0EF2EF12CF02D17C0E12CF12C14C0A4
:100B50000F2EF6E0EF2EF12CF02D0EC06894EE244F
:100B6000E2F8F12C09C06894EE24E2F8F12C04C0FC
:100B70006894EE24E1F8F12C84E0E816F10409F41D
:100B800046C04CF481E0E816F10401F183E0E81678
:100B9000F10461F098C085E0E816F10409F47AC028
:100BA00086E0E816F10409F47DC08DC081E18093F0
:100BB00096046DE771E087E994E00E94190A60E508
:100BC00071E088EA94E00E94190A7DC060E071E05B
:100BD00081E00E94B70177C0D1E0DC0F8D2F0E9429
:100BE0008E010C2F10E0F801E956FB4F808190E058
:100BF0000E94AD0181E18C0F0E948E01F801E85541
:100C0000FB4F808190E00E94AD01CD2F01C0C0E07C
:100C1000C03110F380912F010E948E0180E090E09E
:100C20000E94AD01409196044D3268F030C0822F91
:100C300090E0FC01E856FB4F3081FC01E956FB4F88
:100C400030832F5F01C020E02F3088F3642F70E0E5
:100C5000FB01E358FE4F80818093A60480E00BC027
:100C6000282F30E0F901E755FB4F9081F901E85555
:100C7000FB4F90838F5F8F3098F3FB01E05BFE4F5B
:100C800080818093B7044F5F409396041CC01092FC
:100C9000960419C06AEA71E081E00E94B7011092DF
:100CA000960411C00E948A0181E1809396046DE749
:100CB00071E087E994E00E94190A60E571E088EA32
:100CC00094E00E94190AC701DF91CF911F910F9103
:100CD000FF90EF900895CF93DF93EC01883091055A
:100CE00008F049C0FC01EC5AFF4F0C94100AC1E017
:100CF000D0E058C01A9B45C01A9B54C0199B52C0E3
:100D000083B150C0C4E0D0E04DC080916304803313
:100D100021F4809164048033B9F11B9B38C0809129
:100D20006204882329F010926204C5E0D0E03AC042
:100D30008F5F8093620436C01B9B2CC0809161043E
:100D4000882329F010926104C4E0D0E02BC08F5FAB
:100D50008093610427C01A9B20C01B9923C0C0E068
:100D6000D0E020C01A9B1EC01A9B1CC0199B1AC041
:100D7000189916C017C0C0E0D0E014C0C2E0D0E09F
:100D800011C0C7E0D0E00EC0C6E0D0E00BC0C0E0AC
:100D9000D0E008C0C0E0D0E005C0C7E0D0E002C0AD
:100DA000C3E0D0E0C330D10509F465C03CF4C130E4
:100DB000D10589F0C230D10581F17EC1C630D1059F
:100DC00009F4EDC0C730D10509F45BC1C530D105C8
:100DD00009F072C15FC085E090E00E94200A8F3F59
:100DE00039F480E38093310185E38093300164C15D
:100DF0009DEC899F912D112496959695969520E3CB
:100E0000290F20933101990F292F220F220F920FC2
:100E1000891B805D809330014FC10E94600261E0B8
:100E200085EB91E00E9432036AE080E00E94430378
:100E300061E084EC91E00E94320364E180E00E9472
:100E4000430361E083ED91E00E9432036EE180E0B4
:100E50000E94430361E082EE91E00E94320368E267
:100E600080E00E94430361E081EF91E00E94320341
:100E70000E94480321C182E38093640480E380934D
:100E80006304109262041092610410926004109244
:100E90005F0412C180915F0490916004009789F013
:100EA00020916304203369F41092600410925F046F
:100EB0008091640481508093640489E38093630487
:100EC00013C0009761F020916304203341F0109229
:100ED000600410925F0421502093630405C00196C2
:100EE0009093600480935F040E94600261E080E060
:100EF00092E00E94320360E082E30E94430361E0DB
:100F0000809135010E94AA0260E088E30E944303B9
:100F100061E0809134010E94AA026FE080E00E94AB
:100F2000430361E087E092E00E9432036FE082E3D6
:100F30000E94430361E0809133010E94AA026FE0A6
:100F400088E30E94430361E0809132010E94AA027B
:100F50006EE180E00E94430361E08EE092E00E9437
:100F600032036EE182E30E94430361E080916404F6
:100F70000E94AA026EE188E30E94430361E080912F
:100F800063040E94AA020E9448032FE788E391E0CD
:100F9000215080409040E1F700C000008DC080915A
:100FA000350190913101981738F480933101809187
:100FB0003401809330010CC089130AC09091340130
:100FC00020913001291720F4809331019093300152
:100FD00080913101880F8056682F660F660F680F69
:100FE00090913001690F605385E090E00E94280ADB
:100FF0000E94600261E085E192E00E94320360E0BD
:1010000089E40E94430361E0809135010E94AA02B5
:1010100060E08FE40E94430361E0809134010E940C
:10102000AA026AE080E00E94430361E082E292E06B
:101030000E9432036AE089E40E94430361E08091E8
:1010400031010E94AA026AE08FE40E94430361E03A
:10105000809130010E94AA0269E180E00E9443036E
:1010600061E08EE292E00E94320363E280E00E943F
:10107000430361E08DE392E00E9432030E94480343
:101080001BC00E94600261E08BE492E00E94320388
:101090006AE08AE00E94430362E086E592E00E94F3
:1010A00032036EE189E10E94430362E08EE592E043
:1010B0000E9432030E944803CE01DF91CF91089530
:1010C0006093360170933701809338019093390112
:1010D000609365047093660480936704909368043A
:1010E00008958BE0809381008DE790E090938900D4
:1010F0008093880082E080936F00109285001092A8
:1011000084008091360190913701A0913801B0910F
:1011100039018093650490936604A0936704B093AB
:1011200068048FB780688FBF08951092810008957A
:1011300081E08093690408951F920F920FB60F9279
:1011400011240BB60F922F933F934F935F936F939E
:101150007F938F939F93AF93BF93EF93FF93809170
:10116000650490916604A0916704B09168040197AA
:10117000A109B1098093650490936604A093670464
:10118000B0936804892B8A2B8B2B91F40E949808CA
:101190008091360190913701A0913801B0913901C9
:1011A0008093650490936604A0936704B0936804E9
:1011B000FF91EF91BF91AF919F918F917F916F912F
:1011C0005F914F913F912F910F900BBE0F900FBEEB
:1011D0000F901F9018950F931F93CF93DF93B62F07
:1011E000A72FF82FE92F022F132FD42FC52F04C0BC
:1011F000062F172FD82FC92F6B2F7A2F8F2F9E2FA7
:10120000202F312F4D2F5C2F0E94EE09B02FA12FE0
:10121000FD2FEC2F611571058105910549F7602FB0
:10122000712F8D2F9C2FDF91CF911F910F910895DA
:10123000CF93DF93CDB7DEB728970FB6F894DEBF14
:101240000FBECDBF8FEF81B912B814B885B987B979
:1012500018B88AB91BB888E0E8E4F1E0DE0111961D
:1012600001900D928A95E1F7EBE8F4E0108289E1B4
:1012700090E0A0E0B0E081839283A383B483858370
:101280009683A783B08722E733E032872187E0E89F
:10129000F4E0108281839283A383B4838583968351
:1012A000A783B08787E194E092878187E5E7F4E040
:1012B000108286E990E0A0E0B0E081839283A3836E
:1012C000B48385839683A783B08725E435E032878E
:1012D0002187EAE6F4E0108281839283A383B483BA
:1012E00085839683A783B0878BE696E09287818774
:1012F0000E941C020E94980161E070E080E090E092
:101300000E9460080E94710867E271E080E090E04E
:101310000E94DA016FE171E081E090E00E94DA0161
:1013200067E171E082E090E00E94DA016FE071E035
:1013300083E090E00E94DA01E12CF12C38C0F70143
:10134000EE0FFF1FEC0FFD1F01811281D8011596D2
:101350004D915D916D917C91189711968D919D9114
:101360000D90BC91A02D481759076A077B0781F49F
:10137000D8011996ED91FC911A978C91992787FDC8
:1013800090950995F8018083158216821782108640
:10139000F80185819681A781B0850196A11DB11DB7
:1013A00085839683A783B087FFEFEF1AFF0A84E057
:1013B000E816F10420F2809169048823E1F3109289
:1013C0006904BACF991B79E004C0991F961708F0F9
:1013D000961B881F7A95C9F780950895A1E21A2E69
:1013E000AA1BBB1BFD010DC0AA1FBB1FEE1FFF1FC9
:1013F000A217B307E407F50720F0A21BB30BE40B19
:10140000F50B661F771F881F991F1A9469F760955F
:101410007095809590959B01AC01BD01CF01089519
:10142000EE0FFF1F0024001C0BBE0790F691E02D6D
:101430000994FB01DC0101900D920020E1F7089571
:10144000F999FECF92BD81BDF89A992780B508958C
:10145000262FF999FECF92BD81BDF89A019700B46D
:10146000021639F01FBA20BD0FB6F894FA9AF99A0D
:081470000FBE0895F894FFCFB0
:1014780047455441574159205357494D4D4552000E
:101488000E040E1F1F0E00111F0E041F150E1B0445
:101498000A111515110A04180C161D1F160C18111F
:1014A800303035303030010000000000000200000C
:1014B80000006103000000008B04800475046A04C6
:1014C800202020012020200220200320202001208D
:1014D800202001202002202001202020202002207E
:1014E800200120202020012020032002202020206D
:1014F800022020012020202020200120202020025E
:10150800202020200320200220202001202020202D
:101518002002202020022020202054494D45275316
:10152800205550210047656D3A202020202B31207E
:10153800706E740044656D6F6E3A20202D312070F6
:101548006E740046727569743A202B3130205354FA
:101558004D004250726573733A202D312053544D1B
:1015680000484F4C442052454420425554542E00C4
:1015780053434F523A20005354414D3A20005449A6
:101588004D453A200046494E414C2053434F524561
:101598003A00484947482053434F52453A00486F5C
:1015A8006C642072656420627574742E00746F20F8
:1015B800706C617920616761696E00596F7520727E
:1015C800656164793F004C45542827732900474FCB
:0215D8002100F0
:00000001FF
