:100000000C944B010C946A010C946A010C946A01E3
:100010000C946A010C946A010C946A010C946A01B4
:100020000C946A010C946A010C946A010C946A01A4
:100030000C946A010C94FD070C946A010C946A01FB
:100040000C946A010C946A010C946A010C946A0184
:100050000C946A010C946A010C946A010C946A0174
:100060000C946A010C946A010C946A010C946A0164
:100070000C946A010C946A010C946A010C946A0154
:100080000C946A010C946A010C946A01DB037A03F4
:100090009903C703BE03C703C1033B0541054905D7
:1000A00070054E05580560055406570692065F0612
:1000B000740681068606000000000000005F000054
:1000C0000007000700147F147F14242A7F2A1223BC
:1000D0001308646236495522500005030000001CD5
:1000E0002241000041221C0014083E081408083E6A
:1000F0000808005030000008080808080060600088
:100100000020100804023E5149453E00427F400055
:1001100042615149462141454B311814127F102745
:10012000454545393C4A494930017109050336497D
:10013000494936064949291E003636000000563620
:100140000000081422410014141414140041221455
:10015000080201510906324979413E7E1111117E92
:100160007F494949363E414141227F4141221C7F1E
:10017000494949417F090909013E4149497A7F08B6
:1001800008087F00417F41002040413F017F081463
:1001900022417F404040407F020C027F7F040810D4
:1001A0007F3E4141413E7F090909063E4151215EA2
:1001B0007F09192946464949493101017F01013F1B
:1001C0004040403F1F2040201F3F4038403F6314C5
:1001D00008146307087008076151494543007F41CF
:1001E000410002040810200041417F000402010286
:1001F0000440404040400001020400205454547820
:100200007F484444383844444420384444487F3884
:1002100054545418087E0901020C5252523E7F0871
:1002200004047800447D40002040443D007F1028B5
:10023000440000417F40007C041804787C080404DA
:100240007838444444387C14141408081414187C76
:100250007C080404084854545420043F4440203C83
:100260004040207C1C2040201C3C4030403C442826
:100270001028440C5050503C4464544C4400083600
:10028000410000007F0000004136080010080810FF
:1002900008000000000011241FBECFEFD0E4DEBF35
:1002A000CDBF12E0A0E0B1E0E6E0F3E100E00BBF7B
:1002B00002C007900D92A235B107D9F714E0A2E56C
:1002C000B2E001C01D92A93AB107E1F70E94790896
:1002D0000C9481090C94000040E050E00CC0000038
:1002E0002F5F3F4F02C020E030E0273063E0360749
:1002F000B4F34F5F5F4F48175907ACF308955E980A
:1003000088B95F9A00005F9882E090E00E946C01DB
:10031000089581E00E947F010895813120F4815881
:100320000E947F01089581550E947F01089584E60F
:1003300090E00E946C0188E30E947F0186E00E94A9
:100340007F018FE00E947F0181E00E947F018AE0AF
:1003500090E00E946C0108955E9A88B95F9A00004F
:100360005F9881E090E00E946C010895EF92FF9207
:100370000F931F93CF93DF93182FEB010E948901F6
:100380000EC001E0010F812F0E948D017E018FEFD1
:10039000E81AF80A88810E94AC01102FE7018881D1
:1003A0008111EFCFDF91CF911F910F91FF90EF90CF
:1003B00008950F931F93CF93883090F48B01880F8B
:1003C000880F880F805C0E947F01C0E007C0F801A1
:1003D000EC0FF11D80810E94AC01CF5FC830B8F3F3
:1003E000CF911F910F9108951498662319F0129AD6
:1003F00090E015C01298FCCF47E050E0491B51092E
:10040000282F30E002C0359527954A95E2F720FF66
:1004100002C0119A01C01198109A10989F5F9830ED
:1004200058F3149A089560E00E94F401089561E081
:100430000E94F4010895CF93DF930C9A0B9A0A9AC5
:10044000099A089A139A149A83EC99E00197F1F7A4
:1004500000C0000013988BE594E40197F1F700C009
:100460000000139A149881E20E94130283E10E9413
:10047000130286E00E94130282EC0E94130280E2C3
:100480000E94130289E00E94130280E80E94130276
:1004900080E40E941302C0E0D0E004C080E00E942B
:1004A00017022196C83F91E0D907C0F388E00E9467
:1004B00013028CE00E941302DF91CF91089580E82F
:1004C0000E94130280E40E94130210924A041092C8
:1004D0004B0480E090E005C0FC01EE5AFD4F108215
:1004E0000196883F21E09207B8F30895882311F020
:1004F00080E201C084E20E9413020895262F26950F
:100500002695269590E034E5239F800D911D1124BA
:10051000442379F0677021E030E002C0220F331FDE
:100520006A95E2F7FC01EE5AFD4F8081282B20836B
:100530000895677021E030E002C0220F331F6A95F2
:10054000E2F7FC01EE5AFD4F20958081282320839D
:100550000895EF92FF920F931F93CF93DF93E82EAE
:10056000F62E00E047C02E2D332727FD3095205270
:100570003109802F6F2D0E944309F901EE0FFF1FF3
:10058000EE0FFF1FE20FF31FE80FF11DEA54FF4FBC
:10059000E491812F0E944309F0E002C0F595E795B0
:1005A0008A95E2F7E0FF0AC060914B0480914A040B
:1005B000610F41E0800F0E947E0209C060914B04F0
:1005C00080914A04610F40E0800F0E947E021F5F0D
:1005D00001C010E0212F30E0CE01880F991F880F55
:1005E000991F880F991F8C1B9D0B281739070CF436
:1005F000BACF0F5F202F30E0CF2DD0E0CE01880F93
:10060000991F880F991F8C0F9D1F281739070CF30E
:10061000EAE4F4E08F2D880F880F8F0D9081890F09
:100620008F5F8083843570F010924A04EBE4F4E02D
:100630008F2D880F880F880F982F9F198081890F21
:100640008F5F808380914B04803320F010924A04A6
:1006500010924B04DF91CF911F910F91FF90EF907B
:1006600008951F93CF93DF93EC01162F04C02196BA
:10067000612F0E94A90288818111F9CFDF91CF916A
:100680001F91089580934A0460934B040895CF937B
:10069000DF9380E80E94130280E40E941302C0E00E
:1006A000D0E007C0FE01EE5AFD4F80810E94170284
:1006B0002196C83F81E0D807A8F3DF91CF91089534
:1006C000CF93C82F8A3019F48DE00E946003909177
:1006D000C00095FFFCCFC093C60080E090E0CF91B2
:1006E00008958730910508F04FC0FC01EA5BFF4F89
:1006F0000C94710923B130E0209530952F70332789
:100700002130310551F023B130E0209530952F7024
:1007100033272230310509F04EC020912F012133BB
:10072000C8F5203309F047C020912E012133A8F5E8
:1007300042C023B130E0209530952F70332721300F
:10074000310549F423B130E0209530952F703327DF
:100750002230310529F523B130E0209530952F70F6
:1007600033272130310539F123B130E02095309520
:100770002F70332722303105F1F415C0189916C0B7
:100780001AC0199916C017C080E090E014C081E02B
:1007900090E011C082E090E00EC082E090E00BC0DB
:1007A00084E090E008C086E090E005C083E090E03F
:1007B00002C085E090E083309105D1F0853091054D
:1007C00019F0009759F528C020912E01203349F4E3
:1007D00020912F01215020932F0129E320932E01F6
:1007E00003C0215020932E0121E120932D01089573
:1007F00020912E01203349F420912F012150209384
:100800002F0129E320932E0103C0215020932E01B4
:1008100021E020932D01089581E090E00895823039
:10082000910509F459C034F4009759F081309105CD
:1008300059F04FC083309105D9F006970CF44CC0A5
:1008400048C081E090E065C020915404203329F431
:1008500030915304303309F45CC0213308F03FC0B9
:10086000203309F056C0209153042133D8F551C0EC
:1008700020915404203321F4209153042033A9F112
:1008800020918704213021F430912D01313081F104
:1008900030919804313021F440912D01413159F1CA
:1008A000223021F440912D01413041F1323021F4C8
:1008B00040912D01413129F1233021F420912D0166
:1008C000213011F1333029F520912D01213109F525
:1008D0001EC080E090E01DC083E090E01AC082E07E
:1008E00090E017C082E090E014C081E090E011C079
:1008F00084E090E00EC084E090E00BC085E090E0E2
:1009000008C085E090E005C086E090E002C086E087
:1009100090E084309105C1F024F48230910551F0CB
:1009200008958530910509F441C08630910509F498
:1009300071C0089510924E0410924D0420E320934C
:10094000310120933001089530913101393359F448
:1009500020913001293339F420914E04223018F0CF
:1009600010924E04089520913001293369F440918A
:100970004E04423048F010924E043F5F30933101F4
:1009800020E3209330010895293351F030914E0433
:10099000323030F010924E042F5F209330010895D2
:1009A00020914E042F5F20934E0408953091310121
:1009B000303359F420913001203339F420914D0423
:1009C000223018F010924D04089520913001203308
:1009D00079F4313368F040914D04423048F0109280
:1009E0004D0431503093310129E3209330010895B3
:1009F000203351F030914D04323030F010924D04DC
:100A0000215020933001089520914D042F5F2093B1
:100A10004D04089520912F01293359F430914C044D
:100A2000332339F010924C0420932F0120932E0190
:100A30000895293350F430914C04332331F010924F
:100A40004C042F5F20932F01089520914C042F5FB9
:100A500020934C040895EF92FF920F931F93CF932E
:100A6000DF937C0187E0E816F104B8F5F701E35B5A
:100A7000FF4F0C9471090F2EF3E0EF2EF12CF02DA7
:100A800053C01A9B31C01A9B4FC0199B4DC083B1F4
:100A90004BC06894EE24E2F8F12C46C080915404D7
:100AA000803309F041C0809153048033E9F522C0BE
:100AB0001A9B26C01A9B38C0199B36C083B134C01C
:100AC0001A9B32C01A9B22C0199B25C0189928C0B6
:100AD0006894EE24E2F8F12C27C0E12CF12C24C01C
:100AE000EE24E394F12C20C00F2EF6E0EF2EF12C33
:100AF000F02D1AC00F2EF5E0EF2EF12CF02D14C0C2
:100B00000F2EF6E0EF2EF12CF02D0EC06894EE249F
:100B1000E2F8F12C09C06894EE24E2F8F12C04C04C
:100B20006894EE24E1F8F12C83E0E816F104B1F0CA
:100B30004CF481E0E816F10409F182E0E816F104D2
:100B400029F19EC085E0E816F10409F480C0E4F1C3
:100B500086E0E816F10409F482C092C081E1809336
:100B6000860469E771E087E894E00E947A096CE402
:100B700071E088E994E00E947A0982C00E948901AC
:100B800060E071E082E00E94B6017AC00E948901B3
:100B900077C0D1E0DC0F8D2F0E948D010C2F10E06B
:100BA000F801E957FB4F808190E00E94AC0181E1A0
:100BB0008C0F0E948D01F801E856FB4F808190E078
:100BC0000E94AC01CD2F01C0C0E0C03110F3809174
:100BD0002D010E948D0180E090E00E94AC014091C7
:100BE00086044D3268F030C0822F90E0FC01E85757
:100BF000FB4F3081FC01E957FB4F30832F5F01C071
:100C000020E02F3088F3642F70E0FB01E758FE4F9F
:100C100080818093960420E00BC0822F90E0FC013D
:100C2000E756FB4F3081FC01E856FB4F30832F5FC6
:100C30002F3098F3FB01E45BFE4F80818093A70483
:100C40004F5F409386041CC01092860419C066EA68
:100C500071E081E00E94B6011092860411C00E94EA
:100C6000890181E18093860469E771E087E894E077
:100C70000E947A096CE471E088E994E00E947A09A4
:100C8000C701DF91CF911F910F91FF90EF900895D1
:100C9000CF93DF93EC018730910508F040C0FC0151
:100CA000EC5AFF4F0C947109C1E0D0E046C01A9B8A
:100CB0003CC01A9B42C0199B40C083B13EC080918A
:100CC0005304803321F480915404803389F180915E
:100CD0005204882329F010925204C4E0D0E02DC0C1
:100CE0008F5F8093520429C080915104882329F09A
:100CF00010925104C3E0D0E020C08F5F8093510474
:100D00001CC01A991AC0C6E0D0E017C01A9B15C0C3
:100D10001A9B13C0199B11C018990DC00EC0C0E0DA
:100D2000D0E00BC0C3E0D0E008C0C6E0D0E005C012
:100D3000C5E0D0E002C0C2E0D0E0C430D10509F483
:100D40004EC03CF4C130D10569F0C230D105C1F1CB
:100D500014C1C530D10509F4C7C0C630D10509F4A6
:100D6000F1C00BC10E945F0261E081EB91E00E9443
:100D700031036AE080E00E94420361E080EC91E090
:100D80000E94310364E180E00E94420361E08FEC45
:100D900091E00E9431036EE180E00E94420361E035
:100DA0008EED91E00E94310368E280E00E944203F0
:100DB00061E08DEE91E00E9431030E944703DDC0A7
:100DC00083E38093540480E380935304109252048D
:100DD000109251041092500410924F04CEC0809192
:100DE0004F0490915004009789F0209153042033D0
:100DF00069F41092500410924F0480915404815071
:100E00008093540489E38093530413C0009761F0E6
:100E100020915304203341F01092500410924F045B
:100E200021502093530405C0019690935004809361
:100E30004F040E945F0261E08CEF91E00E94310359
:100E400060E082E30E94420361E0809131010E94F0
:100E5000A90260E088E30E94420361E080913001D2
:100E60000E94A9026FE080E00E94420361E083E0FB
:100E700092E00E9431036FE082E30E94420361E04E
:100E800080912F010E94A9026FE088E30E94420333
:100E900061E080912E010E94A9026EE180E00E9433
:100EA000420361E08AE092E00E9431036EE182E356
:100EB0000E94420361E0809154040E94A9026EE105
:100EC00088E30E94420361E0809153040E94A902DA
:100ED0000E9447032FE788E391E021508040904033
:100EE000E1F700C0000049C00E945F0261E081E1BB
:100EF00092E00E9431036AE089E10E94420362E0CD
:100F0000809131010E94A9026AE088E20E944203B6
:100F100062E0809130010E94A90269E180E00E94B4
:100F2000420361E08EE192E00E94310363E280E0DF
:100F30000E94420361E08DE292E00E9431030E9430
:100F400047031BC00E945F0261E08BE392E00E94B6
:100F500031036AE08AE00E94420362E086E492E0A4
:100F60000E9431036EE189E10E94420362E08EE457
:100F700092E00E9431030E944703CE01DF91CF919E
:100F800008956093320170933301809334019093FC
:100F900035016093550470935604809357049093E1
:100FA000580408958BE0809381008DE790E0909342
:100FB00089008093880082E080936F001092850002
:100FC000109284008091320190913301A0913401FC
:100FD000B09135018093550490935604A093570423
:100FE000B09358048FB780688FBF08951092810026
:100FF000089581E08093590408951F920F920FB6CF
:101000000F9211240BB60F922F933F934F935F9340
:101010006F937F938F939F93AF93BF93EF93FF93C0
:101020008091550490915604A0915704B0915804B2
:101030000197A109B1098093550490935604A09398
:101040005704B0935804892B8A2B8B2B91F40E9460
:10105000F9078091320190913301A0913401B09150
:1010600035018093550490935604A0935704B09390
:101070005804FF91EF91BF91AF919F918F917F9114
:101080006F915F914F913F912F910F900BBE0F90F9
:101090000FBE0F901F9018950F931F93CF93DF9360
:1010A000B62FA72FF82FE92F022F132FD42FC52FDC
:1010B00004C0062F172FD82FC92F6B2F7A2F8F2FF1
:1010C0009E2F202F312F4D2F5C2F0E944F09B02FC4
:1010D000A12FFD2FEC2F611571058105910549F7B1
:1010E000602F712F8D2F9C2FDF91CF911F910F912A
:1010F0000895CF93DF93CDB7DEB728970FB6F89456
:10110000DEBF0FBECDBF8FEF81B912B814B885B95D
:1011100087B918B88AB91BB888E0E4E4F1E0DE01C9
:10112000119601900D928A95E1F7EBE7F4E01082B9
:1011300089E190E0A0E0B0E081839283A383B4834F
:1011400085839683A783B08721E733E032872187A1
:10115000E0E7F4E0108281839283A383B4838583E4
:101160009683A783B0878FE094E092878187E5E636
:10117000F4E0108286E990E0A0E0B0E08183928301
:10118000A383B48385839683A783B0872BE235E05E
:1011900032872187EAE5F4E0108281839283A3837A
:1011A000B48385839683A783B08788E496E092878B
:1011B00081870E941B020E94970161E070E080E03D
:1011C00090E00E94C1070E94D20765E271E080E0D2
:1011D00090E00E94D9016DE171E081E090E00E9411
:1011E000D90165E171E082E090E00E94D9016DE0F3
:1011F00071E083E090E00E94D901E12CF12C38C02D
:10120000F701EE0FFF1FEC0FFD1F01811281D801C6
:1012100015964D915D916D917C91189711968D91D8
:101220009D910D90BC91A02D481759076A077B0727
:1012300081F4D8011996ED91FC911A978C91992718
:1012400087FD90950995F801808315821682178293
:101250001086F80185819681A781B0850196A11D30
:10126000B11D85839683A783B087FFEFEF1AFF0A2E
:1012700084E0E816F10420F2809159048823E1F318
:1012800010925904BACF991B79E004C0991F9617A0
:1012900008F0961B881F7A95C9F780950895A1E2FA
:1012A0001A2EAA1BBB1BFD010DC0AA1FBB1FEE1FE0
:1012B000FF1FA217B307E407F50720F0A21BB30B2B
:1012C000E40BF50B661F771F881F991F1A9469F7A7
:1012D00060957095809590959B01AC01BD01CF0103
:1012E0000895EE0FFF1F0024001C0BBE0790F6911F
:1012F000E02D0994FB01DC0101900D920020E1F743
:061300000895F894FFCFF0
:1013060046495348205448494546000000000E040B
:101316000E1F1F0E00111F0E041F150E1B040A11AF
:101326001515110A04180C161D1F160C1811353048
:1013360030300100000000000002000000006003E1
:10134600000000007B04700465045A04202020017C
:101356002020022020012020022020202020022000
:101366002001202001202001202002202001200130
:1013760020200220032020022020202002202001FD
:1013860020200220202001202002202020022020D0
:1013960003202002202020012002202020022020DD
:1013A60020022020202054494D4527532055502106
:1013B6000047656D3A202020202B3120706E740086
:1013C60044656D6F6E3A20202D3120706E74004694
:1013D600727569743A202B31302053544D004250B7
:1013E600726573733A202D312053544D00484F4C8B
:1013F600442052454420425554542E0053434F52E4
:101406003A20005354414D3A200054494D453A2064
:101416000046494E414C2053434F52453A00486FCF
:101426006C642072656420627574742E00746F207B
:10143600706C617920616761696E00596F75207201
:10144600656164793F004C45542827732900474F4E
:02145600210073
:00000001FF
