:100000000C943D010C945C010C945C010C945C011B
:100010000C945C010C945C010C945C010C945C01EC
:100020000C945C010C945C010C945C010C945C01DC
:100030000C945C010C94FC060C945C010C945C0127
:100040000C945C010C945C010C945C010C945C01BC
:100050000C945C010C945C010C945C010C945C01AC
:100060000C945C010C945C010C945C010C945C019C
:100070000C945C010C945C010C945C010C945C018C
:100080000C945C010C945C010C945C01C8036C033F
:100090008903B703AE03B703B103000000000000FB
:1000A000005F00000007000700147F147F14242A5B
:1000B0007F2A122313086462364955225000050333
:1000C0000000001C2241000041221C0014083E08D0
:1000D0001408083E08080050300000080808080806
:1000E000006060000020100804023E5149453E00B7
:1000F000427F400042615149462141454B3118142D
:10010000127F1027454545393C4A4949300171095C
:1001100005033649494936064949291E0036360045
:100120000000563600000814224100141414141460
:1001300000412214080201510906324979413E7EEC
:100140001111117E7F494949363E414141227F418B
:1001500041221C7F494949417F090909013E414922
:10016000497A7F0808087F00417F41002040413FD5
:10017000017F081422417F404040407F020C027FF3
:100180007F0408107F3E4141413E7F090909063E38
:100190004151215E7F0919294646494949310101EA
:1001A0007F01013F4040403F1F2040201F3F40381B
:1001B000403F6314081463070870080761514945FC
:1001C00043007F41410002040810200041417F00AC
:1001D00004020102044040404040000102040020AB
:1001E000545454787F484444383844444420384474
:1001F00044487F3854545418087E0901020C525266
:10020000523E7F0804047800447D40002040443D75
:10021000007F1028440000417F40007C04180478CF
:100220007C0804047838444444387C1414140808C6
:100230001414187C7C080404084854545420043FC7
:100240004440203C4040207C1C2040201C3C40304E
:10025000403C44281028440C5050503C4464544CBA
:1002600044000836410000007F00000041360800CD
:100270001008081008000000000011241FBECFEF76
:10028000D0E4DEBFCDBF12E0A0E0B1E0ECE0F1E1F0
:1002900000E00BBF02C007900D92A431B107D9F75F
:1002A00014E0A4E1B2E001C01D92A635B107E1F768
:1002B0000E9478070C9484080C94000040E050E001
:1002C0000CC000002F5F3F4F02C020E030E027301D
:1002D00063E03607B4F34F5F5F4F48175907ACF33D
:1002E00008955E9888B95F9A00005F9882E090E078
:1002F0000E945E01089581E00E947101089581319C
:1003000020F481580E947101089581550E94710165
:10031000089584E690E00E945E0188E30E947101E6
:1003200086E00E9471018FE00E94710181E00E94CD
:1003300071018AE090E00E945E0108955E9A88B99A
:100340005F9A00005F9881E090E00E945E0108954E
:10035000EF92FF920F931F93CF93DF93182FEB0130
:100360000E947B010EC001E0010F812F0E947F01DE
:100370007E018FEFE81AF80A88810E949E01102FF3
:10038000E70188818111EFCFDF91CF911F910F910C
:10039000FF90EF9008950F931F93CF93883090F4C0
:1003A0008B01880F880F880F805C0E947101C0E06C
:1003B00007C0F801EC0FF11D80810E949E01CF5F04
:1003C000C830B8F3CF911F910F9108951498662308
:1003D00019F0129A90E015C01298FCCF47E050E057
:1003E000491B5109282F30E002C0359527954A95C1
:1003F000E2F720FF02C0119A01C01198109A1098DC
:100400009F5F983058F3149A089560E00E94E601C7
:10041000089561E00E94E6010895CF93DF930C9A5E
:100420000B9A0A9A099A089A139A149A83EC99E0FB
:100430000197F1F700C0000013988BE594E4019751
:10044000F1F700C00000139A149881E20E9405029F
:1004500083E10E94050286E00E94050282EC0E9470
:10046000050280E20E94050289E00E94050280E800
:100470000E94050280E40E940502C0E0D0E004C0B2
:1004800080E00E9409022196C83F91E0D907C0F39D
:1004900088E00E9405028CE00E940502DF91CF9166
:1004A000089580E80E94050280E40E9405021092EF
:1004B0000C0410920D0480E090E005C0FC01EC5E9D
:1004C000FD4F10820196883F21E09207B8F308950E
:1004D000882311F080E201C084E20E9405020895A1
:1004E000262F26952695269590E034E5239F800DAE
:1004F000911D1124442379F0677021E030E002C09F
:10050000220F331F6A95E2F7FC01EC5EFD4F8081FC
:10051000282B20830895677021E030E002C0220F6D
:10052000331F6A95E2F7FC01EC5EFD4F2095808158
:10053000282320830895EF92FF920F931F93CF9368
:10054000DF93E82EF62E00E047C02E2D332727FD3F
:10055000309520523109802F6F2D0E944608F901F5
:10056000EE0FFF1FEE0FFF1FE20FF31FE80FF11D4D
:10057000E656FF4FE491812F0E944608F0E002C04A
:10058000F595E7958A95E2F7E0FF0AC060910D04C2
:1005900080910C04610F41E0800F0E94700209C03D
:1005A00060910D0480910C04610F40E0800F0E9467
:1005B00070021F5F01C010E0212F30E0CE01880FD4
:1005C000991F880F991F880F991F8C1B9D0B281747
:1005D00039070CF4BACF0F5F202F30E0CF2DD0E0D9
:1005E000CE01880F991F880F991F8C0F9D1F281708
:1005F00039070CF3ECE0F4E08F2D880F880F8F0D96
:100600009081890F8F5F8083843570F010920C0485
:10061000EDE0F4E08F2D880F880F880F982F9F1939
:100620008081890F8F5F808380910D04803320F05B
:1006300010920C0410920D04DF91CF911F910F9135
:10064000FF90EF9008951F93CF93DF93EC01162F47
:1006500004C02196612F0E949B0288818111F9CFED
:10066000DF91CF911F91089580930C0460930D0446
:100670000895CF93DF9380E80E94050280E40E94F2
:100680000502C0E0D0E007C0FE01EC5EFD4F8081B6
:100690000E9409022196C83F81E0D807A8F3DF91A4
:1006A000CF910895CF93C82F8A3019F48DE00E941E
:1006B00052039091C00095FFFCCFC093C60080E02C
:1006C00090E0CF9108958730910508F04DC0FC016E
:1006D000EA5BFF4F0C94740823B130E0209530950D
:1006E0002F7033272130310551F023B130E02095B0
:1006F00030952F7033272230310509F049C0209101
:100700002F01203308F444C020912E01213390F5AD
:100710003FC023B130E0209530952F703327213032
:10072000310549F423B130E0209530952F703327FF
:100730002230310511F523B130E0209530952F702E
:1007400033272130310521F123B130E02095309558
:100750002F70332722303105D9F412C0189913C0F5
:1007600017C0199913C014C080E090E011C081E057
:1007700090E00EC082E090E00BC084E090E008C002
:1007800086E090E005C083E090E002C085E090E064
:1007900083309105D1F08530910519F0009759F516
:1007A00028C020912E01203349F420912F0121509F
:1007B00020932F0129E320932E0103C02150209381
:1007C0002E0121E120932D01089520912E01203347
:1007D00049F420912F01215020932F0129E32093E8
:1007E0002E0103C0215020932E0121E020932D01E2
:1007F000089581E090E008958130910569F01CF43E
:10080000892B39F033C082309105B9F0039789F113
:100810002DC081E090E03EC020913301203321F4CF
:10082000309132013033B1F1213330F5203391F57D
:1008300020913201213318F52DC02091330120334E
:1008400021F4309132013033E9F0309145043130F8
:1008500009F530912D013131E9F42133B0F4203321
:10086000C9F420913201213398F414C080E090E063
:1008700011C082E090E00EC082E090E00BC082E008
:1008800090E008C081E090E005C083E090E002C005
:1008900083E090E08130910521F08330910541F0B3
:1008A0000895109231011092300110920E040895B3
:1008B00020913001293379F430910E04323058F010
:1008C00010920E04209131012F5F2093310120E31B
:1008D000209330010895293351F030910E043230C5
:1008E00030F010920E042F5F209330010895209174
:1008F0000E042F5F20930E0408950F931F93CF9340
:100900008C0182309105C1F134F4009761F081309F
:10091000910561F02EC084309105C9F07CF08530DE
:100920009105E9F026C002E010E037C01A9B27C00D
:100930001A9B33C0199B31C083B12FC08091330102
:10094000803359F580913201803339F51BC01A9BF1
:100950001CC01A9B22C0199B20C083B11EC01A9BC9
:100960001CC01A9B15C0199B16C083B103E010E090
:1009700014C000E010E011C001E010E00EC005E07E
:1009800010E00BC004E010E008C005E010E005C076
:1009900003E010E002C003E010E00330110589F12C
:1009A0003CF401301105B9F00230110551F069C075
:1009B0000430110509F452C00530110509F456C080
:1009C00060C081E1809344046EE471E085E494E0CA
:1009D0000E947D0856C00E947B0160E071E082E0C9
:1009E0000E94A8014EC081E18C0F0E947F01EC2F74
:1009F000F0E0EB5BFB4F808190E00E949E01CF5FB7
:100A000001C0C0E0C03178F380912D010E947F01C8
:100A100080E090E00E949E0140914404493168F0DA
:100A20001AC0822F90E0FC01EA5BFB4F3081FC0191
:100A3000EB5BFB4F30832F5F01C020E02F3088F34A
:100A4000E42FF0E0E25BFE4F8081809354044F5F1F
:100A50004093440416C01092440413C067E671E04A
:100A600081E00E94A801109244040BC00E947B0107
:100A700081E1809344046EE471E085E494E00E9497
:100A80007D08C801CF911F910F910895CF93DF93F7
:100A9000EC0182309105D1F034F4009761F081309F
:100AA000910561F043C08430910591F124F18530C6
:100AB000910599F13BC0C1E0D0E043C01A9B39C019
:100AC0001A9B3FC0199B3DC083B13BC0809132014E
:100AD000803321F480913301803371F180911204CD
:100AE000882329F010921204C3E0D0E02AC08F5F5F
:100AF0008093120426C080911104882329F010925B
:100B00001104C2E0D0E01DC08F5F8093110419C0B2
:100B10001A9917C0C5E0D0E014C01A9B12C01A9BE6
:100B200010C0199B0EC018990AC00BC0C0E0D0E0DD
:100B300008C0C5E0D0E005C0C4E0D0E002C0C2E01B
:100B4000D0E0C330D105E1F124F4C130D10551F03A
:100B500013C1C430D10509F4B8C0C530D10509F4BA
:100B6000E2C00AC10E94510261E082E791E00E9466
:100B700023036AE080E00E94340361E081E891E0B1
:100B80000E94230364E180E00E94340361E080E975
:100B900091E00E9423036EE180E00E94340361E053
:100BA0008FE991E00E94230368E280E00E94340311
:100BB00061E08EEA91E00E9423030E943903DCC0C9
:100BC00080910F0490911004009789F020913201D8
:100BD000203369F41092100410920F0480913301B5
:100BE00081508093330189E38093320113C00097D1
:100BF00061F020913201203341F0109210041092E4
:100C00000F0421502093320105C0019690931004E7
:100C100080930F040E94510261E08DEB91E00E94ED
:100C2000230360E082E30E94340361E0809131019C
:100C30000E949B0260E088E30E94340361E080919F
:100C400030010E949B026FE080E00E94340361E06B
:100C500084EC91E00E9423036FE082E30E9434035E
:100C600061E080912F010E949B026FE088E30E9467
:100C7000340361E080912E010E949B026EE180E0CE
:100C80000E94340361E08BEC91E00E9423036EE14B
:100C900082E30E94340361E0809133010E949B0251
:100CA0006EE188E30E94340361E0809132010E948A
:100CB0009B020E9439032FE788E391E02150804096
:100CC0009040E1F700C0000057C00E94510261E06F
:100CD00082ED91E00E9423036AE089E10E943403DF
:100CE00062E0809131010E949B026AE088E20E94EA
:100CF000340362E0809130010E949B0269E180E050
:100D00000E94340361E08FED91E00E94230363E2CF
:100D100080E00E94340361E08EEE91E00E942303A4
:100D20000E94390329C00E94510261E08CEF91E0DA
:100D30000E9423036AE08AE00E94340362E087E0B5
:100D400092E00E9423036EE189E10E94340362E095
:100D50008FE092E00E9423030E94390381E3809395
:100D6000330180E380933201109212041092110437
:100D70001092100410920F04CE01DF91CF910895CC
:100D8000609334017093350180933601909337015D
:100D900060931304709314048093150490931604C5
:100DA00008958BE0809381008DE790E09093890017
:100DB0008093880082E080936F00109285001092EB
:100DC00084008091340190913501A0913601B09159
:100DD00037018093130490931404A0931504B093E7
:100DE00016048FB780688FBF089510928100089510
:100DF00081E08093170408951F920F920FB60F920F
:100E000011240BB60F922F933F934F935F936F93E1
:100E10007F938F939F93AF93BF93EF93FF938091B3
:100E2000130490911404A0911504B0911604019735
:100E3000A109B1098093130490931404A09315049D
:100E4000B0931604892B8A2B8B2B91F40E94F80601
:100E50008091340190913501A0913601B091370114
:100E60008093130490931404A0931504B093160474
:100E7000FF91EF91BF91AF919F918F917F916F9172
:100E80005F914F913F912F910F900BBE0F900FBE2E
:100E90000F901F9018950F931F93CF93DF93B62F4A
:100EA000A72FF82FE92F022F132FD42FC52F04C0FF
:100EB000062F172FD82FC92F6B2F7A2F8F2F9E2FEA
:100EC000202F312F4D2F5C2F0E945208B02FA12FC1
:100ED000FD2FEC2F611571058105910549F7602FF4
:100EE000712F8D2F9C2FDF91CF911F910F9108951E
:100EF000CF93DF93CDB7DEB728970FB6F894DEBF58
:100F00000FBECDBF8FEF81B912B814B885B987B9BC
:100F100018B88AB91BB888E0E6E4F1E0DE01119662
:100F200001900D928A95E1F7E9E3F4E0108282E303
:100F300090E0A0E0B0E081839283A383B4838583B3
:100F40009683A783B08723E633E032872187EEE2DA
:100F5000F4E0108281839283A383B4838583968394
:100F6000A783B0878CEF93E092878187E3E2F4E078
:100F700010828CE291E0A0E0B0E081839283A383B1
:100F8000B48385839683A783B0878DE794E09287A7
:100F90008187E8E1F4E0108284E091E0A0E0B0E035
:100FA00081839283A383B48385839683A783B08749
:100FB00086E495E0928781870E940D020E94890154
:100FC00061E070E080E090E00E94C0060E94D106DF
:100FD00065E271E080E090E00E94CB016DE171E09C
:100FE00081E090E00E94CB0165E171E082E090E059
:100FF0000E94CB016DE071E083E090E00E94CB01A4
:10100000E12CF12C38C0F701EE0FFF1FEC0FFD1F94
:1010100001811281D80115964D915D916D917C9160
:10102000189711968D919D910D90BC91A02D481708
:1010300059076A077B0781F4D8011996ED91FC9155
:101040001A978C91992787FD90950995F8018083CF
:101050001582168217821086F80185819681A781F4
:10106000B0850196A11DB11D85839683A783B087A6
:10107000FFEFEF1AFF0A84E0E816F10420F28091F6
:1010800017048823E1F310921704BACF991B79E073
:1010900004C0991F961708F0961B881F7A95C9F708
:1010A00080950895A1E21A2EAA1BBB1BFD010DC05D
:1010B000AA1FBB1FEE1FFF1FA217B307E407F50708
:1010C00020F0A21BB30BE40BF50B661F771F881FE4
:1010D000991F1A9469F760957095809590959B017A
:1010E000AC01BD01CF010895EE0FFF1F0024001CCD
:1010F0000BBE0790F691E02D0994FB01DC010190F5
:0C1100000D920020E1F70895F894FFCF55
:10110C0046495348205448494546000000000E0407
:10111C000E1F1F0E00111F0E041F150E1B040A11AB
:10112C001515110A04180C161D1F160C1811353044
:10113C0030303031010000000000000200000000DF
:10114C0052030000000039042E042304180420204C
:10115C0020200120202020012020202001202020E0
:10116C002002202020032054494D45275320555060
:10117C00210047656D3A202020202B3120706E74A1
:10118C000044656D6F6E3A20202D3120706E740016
:10119C0046727569743A202B35205354414D0042E8
:1011AC0050726573733A202D312053544D00484FC3
:1011BC004C442052454420425554542E0053434F26
:1011CC00523A20005354414D3A200054494D453A6F
:1011DC00200046494E414C2053434F52453A00485B
:1011EC006F6C642072656420627574742E00746F69
:1011FC0020706C617920616761696E00596F752090
:10120C0072656164793F004C455428277329004767
:04121C004F2100005E
:00000001FF
