:100000000C9436010C9455010C9455010C94550137
:100010000C9455010C9455010C9455010C94550108
:100020000C9455010C9455010C9455010C945501F8
:100030000C9455010C9434030C9455010C94550107
:100040000C9455010C9455010C9455010C945501D8
:100050000C9455010C9455010C9455010C945501C8
:100060000C9455010C9455010C9455010C945501B8
:100070000C9455010C9455010C9455010C945501A8
:100080000C9455010C9455010C945501000000008E
:100090000000005F00000007000700147F147F14B9
:1000A000242A7F2A122313086462364955225000FD
:1000B00005030000001C2241000041221C0014081E
:1000C0003E081408083E08080050300000080808E0
:1000D0000808006060000020100804023E514945F5
:1000E0003E00427F400042615149462141454B312B
:1000F0001814127F1027454545393C4A49493001BB
:10010000710905033649494936064949291E003611
:100110003600000056360000081422410014141462
:100120001414004122140802015109063249794190
:100130003E7E1111117E7F494949363E414141229F
:100140007F4141221C7F494949417F090909013EFC
:100150004149497A7F0808087F00417F41002040DB
:10016000413F017F081422417F404040407F020C04
:10017000027F7F0408107F3E4141413E7F0909090B
:10018000063E4151215E7F091929464649494931B8
:1001900001017F01013F4040403F1F2040201F3FA1
:1001A0004038403F63140814630708700807615122
:1001B000494543007F4141000204081020004141AD
:1001C0007F0004020102044040404040000102045C
:1001D0000020545454787F484444383844444420E0
:1001E000384444487F3854545418087E0901020C9E
:1001F0005252523E7F0804047800447D4000204063
:10020000443D007F1028440000417F40007C0418DA
:1002100004787C0804047838444444387C1414146A
:1002200008081414187C7C0804040848545454200A
:10023000043F4440203C4040207C1C2040201C3C8B
:100240004030403C44281028440C5050503C4464FA
:10025000544C44000836410000007F000000413645
:1002600008001008081008000000000011241FBE3C
:10027000CFEFD0E4DEBFCDBF11E0A0E0B1E0E4EA13
:10028000F8E000E00BBF02C007900D92A632B10764
:10029000D9F713E0A6E2B1E001C01D92A033B10787
:1002A000E1F70E94B0030C9450040C9400001098E5
:1002B000662319F0129A90E015C01298FCCF47E01F
:1002C00050E0491B5109282F30E002C03595279591
:1002D0004A95E2F720FF02C0139A01C01398149ABE
:1002E00014989F5F983058F3109A089560E00E9428
:1002F0005701089561E00E9457010895CF93DF935D
:10030000089A099A0A9A0B9A0C9A119A109A83ECF5
:1003100099E00197F1F700C0000011988BE594E493
:100320000197F1F700C00000119A109881E20E9435
:10033000760183E10E94760186E00E94760182ECDC
:100340000E94760180E20E94760189E00E94760197
:1003500080E80E94760180E40E947601C0E0D0E04F
:1003600004C080E00E947A012196C83F91E0D9073D
:10037000C0F388E00E9476018CE00E947601DF9154
:10038000CF91089580E80E94760180E40E94760172
:1003900010921E0310921F0380E090E005C0FC0144
:1003A000EA5DFE4F10820196883F21E09207B8F384
:1003B0000895882311F080E201C084E20E94760152
:1003C0000895262F26952695269590E034E5239FBF
:1003D000800D911D1124442379F0677021E030E0F5
:1003E00002C0220F331F6A95E2F7FC01EA5DFE4F5F
:1003F0008081282B20830895677021E030E002C0BF
:10040000220F331F6A95E2F7FC01EA5DFE4F20954B
:100410008081282320830895EF92FF920F931F93EA
:10042000CF93DF93E82EF62E00E047C02E2D332722
:1004300027FD309520523109802F6F2D0E94220414
:10044000F901EE0FFF1FEE0FFF1FE20FF31FE80F82
:10045000F11DE457FF4FE491812F0E942204F0E048
:1004600002C0F595E7958A95E2F7E0FF0AC0609132
:100470001F0380911E03610F41E0800F0E94E10184
:1004800009C060911F0380911E03610F40E0800F3F
:100490000E94E1011F5F01C010E0212F30E0CE017A
:1004A000880F991F880F991F880F991F8C1B9D0B10
:1004B000281739070CF4BACF0F5F202F30E0CF2D6B
:1004C000D0E0CE01880F991F880F991F8C0F9D1FB8
:1004D000281739070CF3EEE1F3E08F2D880F880F12
:1004E0008F0D9081890F8F5F8083843570F010921B
:1004F0001E03EFE1F3E08F2D880F880F880F982FF0
:100500009F198081890F8F5F808380911F038033C3
:1005100020F010921E0310921F03DF91CF911F91C4
:100520000F91FF90EF9008951F93CF93DF93EC010D
:10053000162F04C02196612F0E940C028881811120
:10054000F9CFDF91CF911F91089580931E0360939F
:100550001F030895CF93DF9380E80E94760180E423
:100560000E947601C0E0D0E007C0FE01EA5DFE4FC8
:1005700080810E947A012196C83F81E0D807A8F3C4
:10058000DF91CF910895CF93C82F8A3019F48DE071
:100590000E94C3029091C00095FFFCCFC093C6009B
:1005A00080E090E0CF910895CF93DF93029718F405
:1005B000C1E0D0E002C0C0E0D0E0C130D105A1F47C
:1005C0000E947E010E94C20161E082E191E00E94EE
:1005D00094026AE080E00E94A50263E080E291E07C
:1005E0000E9494020E94AA02CE01DF91CF91089549
:1005F00060930001709301018093020190930301C5
:10060000609320037093210380932203909323032C
:1006100008958BE0809381008DE790E090938900AE
:100620008093880082E080936F0010928500109282
:1006300084008091000190910101A0910201B0918C
:1006400003018093200390932103A0932203B0938E
:1006500023038FB780688FBF08951092810008959B
:1006600081E08093240308951F920F920FB60F929A
:1006700011240BB60F922F933F934F935F936F9379
:100680007F938F939F93AF93BF93EF93FF9380914B
:10069000200390912103A0912203B091230301979D
:1006A000A109B1098093200390932103A093220311
:1006B000B0932303892B8A2B8B2B91F40E94300358
:1006C0008091000190910101A0910201B09103017C
:1006D0008093200390932103A0932203B0932303DC
:1006E000FF91EF91BF91AF919F918F917F916F910A
:1006F0005F914F913F912F910F900BBE0F900FBEC6
:100700000F901F9018950F931F93CF93DF93B62FE1
:10071000A72FF82FE92F022F132FD42FC52F04C096
:10072000062F172FD82FC92F6B2F7A2F8F2F9E2F81
:10073000202F312F4D2F5C2F0E942E04B02FA12F80
:10074000FD2FEC2F611571058105910549F7602F8B
:10075000712F8D2F9C2FDF91CF911F910F910895B5
:10076000CF93DF9300D0CDB7DEB717B88FEF88B93E
:10077000E5E2F3E0FA83E983108285E090E0A0E00F
:10078000B0E081839283A383B48385839683A78318
:10079000B08784ED92E09287818761E070E080E02D
:1007A00090E00E94F8020E94090300E010E037C0C8
:1007B000F801EE0FFF1FEC0FFD1FE180F280D70163
:1007C00015964D915D916D917C91189711968D9133
:1007D0009D910D90BC91A02D481759076A077B0782
:1007E00081F4D7011996ED91FC911A978C91992774
:1007F00087FD90950995F7018083158216821782EF
:100800001086F70185819681A781B0850196A11D8B
:10081000B11D85839683A783B0870F5F1F4F011596
:10082000110531F2809124038823E1F3109224030F
:10083000FFE32DE083E0F15020408040E1F700C06D
:100840000000B3CF991B79E004C0991F961708F0F8
:10085000961B881F7A95C9F780950895A1E21A2EF4
:10086000AA1BBB1BFD010DC0AA1FBB1FEE1FFF1F54
:10087000A217B307E407F50720F0A21BB30BE40BA4
:10088000F50B661F771F881F991F1A9469F76095EB
:100890007095809590959B01AC01BD01CF010895A5
:0408A000F894FFCFFA
:1008A400010000000000000200000000C30200007C
:1008B40000004954275320574F524B494E472100BB
:0608C4004E69636521008E
:00000001FF
