:100000000C9436010C9455010C9455010C94550137
:100010000C9455010C9455010C9455010C94550108
:100020000C9455010C9455010C9455010C945501F8
:100030000C9455010C9455010C9455010C945501E8
:100040000C9455010C9455010C9455010C945501D8
:100050000C9455010C9455010C9455010C945501C8
:100060000C9455010C9455010C9455010C945501B8
:100070000C9455010C9455010C9455010C945501A8
:100080000C9455010C9455010C945501000000008E
:100090000000005F00000007000700147F147F14B9
:1000A000242A7F2A122313086462364955225000FD
:1000B00005030000001C2241000041221C0014081E
:1000C0003E081408083E08080050300000080808E0
:1000D0000808006060000020100804023E514945F5
:1000E0003E00427F400042615149462141454B312B
:1000F0001814127F1027454545393C4A49493001BB
:10010000710905033649494936064949291E003611
:100110003600000056360000081422410014141462
:100120001414004122140802015109063249794190
:100130003E7E1111117E7F494949363E414141229F
:100140007F4141221C7F494949417F090909013EFC
:100150004149497A7F0808087F00417F41002040DB
:10016000413F017F081422417F404040407F020C04
:10017000027F7F0408107F3E4141413E7F0909090B
:10018000063E4151215E7F091929464649494931B8
:1001900001017F01013F4040403F1F2040201F3FA1
:1001A0004038403F63140814630708700807615122
:1001B000494543007F4141000204081020004141AD
:1001C0007F0004020102044040404040000102045C
:1001D0000020545454787F484444383844444420E0
:1001E000384444487F3854545418087E0901020C9E
:1001F0005252523E7F0804047800447D4000204063
:10020000443D007F1028440000417F40007C0418DA
:1002100004787C0804047838444444387C1414146A
:1002200008081414187C7C0804040848545454200A
:10023000043F4440203C4040207C1C2040201C3C8B
:100240004030403C44281028440C5050503C4464FA
:10025000544C44000836410000007F000000413645
:1002600008001008081008000000000011241FBE3C
:10027000CFEFD0E4DEBFCDBF11E0A0E0B1E0E0E021
:10028000F6E000E00BBF02C007900D92A232B1076A
:10029000D9F713E0A2E2B1E001C01D92AC31B10781
:1002A000E1F70E94D4020C94FE020C940000109816
:1002B000662319F0129A90E015C01298FCCF47E01F
:1002C00050E0491B5109282F30E002C03595279591
:1002D0004A95E2F720FF02C0139A01C01398149ABE
:1002E00014989F5F983058F3109A089560E00E9428
:1002F0005701089561E00E9457010895CF93DF935D
:10030000089A099A0A9A0B9A0C9A119A109A83ECF5
:1003100099E00197F1F700C0000011988BE594E493
:100320000197F1F700C00000119A109881E20E9435
:10033000760183E10E94760186E00E94760182ECDC
:100340000E94760180E20E94760189E00E94760197
:1003500080E80E94760180E40E947601C0E0D0E04F
:1003600004C080E00E947A012196C83F91E0D9073D
:10037000C0F388E00E9476018CE00E947601DF9154
:10038000CF91089580E80E94760180E40E94760172
:1003900010921A0310921B0380E090E005C0FC014C
:1003A000EE5DFE4F10820196883F21E09207B8F380
:1003B0000895882311F080E201C084E20E94760152
:1003C0000895262F26952695269590E034E5239FBF
:1003D000800D911D1124442379F0677021E030E0F5
:1003E00002C0220F331F6A95E2F7FC01EE5DFE4F5B
:1003F0008081282B20830895677021E030E002C0BF
:10040000220F331F6A95E2F7FC01EE5DFE4F209547
:100410008081282320830895EF92FF920F931F93EA
:10042000CF93DF93E82EF62E00E047C02E2D332722
:1004300027FD309520523109802F6F2D0E94F20246
:10044000F901EE0FFF1FEE0FFF1FE20FF31FE80F82
:10045000F11DE457FF4FE491812F0E94F202F0E07A
:1004600002C0F595E7958A95E2F7E0FF0AC0609132
:100470001B0380911A03610F41E0800F0E94E1018C
:1004800009C060911B0380911A03610F40E0800F47
:100490000E94E1011F5F01C010E0212F30E0CE017A
:1004A000880F991F880F991F880F991F8C1B9D0B10
:1004B000281739070CF4BACF0F5F202F30E0CF2D6B
:1004C000D0E0CE01880F991F880F991F8C0F9D1FB8
:1004D000281739070CF3EAE1F3E08F2D880F880F16
:1004E0008F0D9081890F8F5F8083843570F010921B
:1004F0001A03EBE1F3E08F2D880F880F880F982FF8
:100500009F198081890F8F5F808380911B038033C7
:1005100020F010921A0310921B03DF91CF911F91CC
:100520000F91FF90EF9008951F93CF93DF93EC010D
:10053000162F04C02196612F0E940C028881811120
:10054000F9CFDF91CF911F91089580931A036093A3
:100550001B030895CF93DF9380E80E94760180E427
:100560000E947601C0E0D0E007C0FE01EE5DFE4FC4
:1005700080810E947A012196C83F81E0D807A8F3C4
:10058000DF91CF910895CF93C82F8A3019F48DE071
:100590000E94C3029091C00095FFFCCFC093C6009B
:1005A00080E090E0CF9108950E947E010E94C201F8
:1005B00061E08EE091E00E9494026AE080E00E9497
:1005C000A50263E08CE191E00E9494020E94AA02DD
:1005D0002FE38DE093E0215080409040E1F700C090
:1005E0000000F6CF991B79E004C0991F961708F018
:1005F000961B881F7A95C9F780950895F894FFCFC8
:100600000000000200000000C30200000000495486
:10061000275320574F524B494E4721004E6963657F
:020620002100B7
:00000001FF
