:100000000C9436010C9455010C9455010C94550137
:100010000C9455010C9455010C9455010C94550108
:100020000C9455010C9455010C9455010C945501F8
:100030000C9455010C9488030C9455010C945501B3
:100040000C9455010C9455010C9455010C945501D8
:100050000C9455010C9455010C9455010C945501C8
:100060000C9455010C9455010C9455010C945501B8
:100070000C9455010C9455010C9455010C945501A8
:100080000C9455010C9455010C945501000000008E
:100090000000005F00000007000700147F147F14B9
:1000A000242A7F2A122313086462364955225000FD
:1000B00005030000001C2241000041221C0014081E
:1000C0003E081408083E08080050300000080808E0
:1000D0000808006060000020100804023E514945F5
:1000E0003E00427F400042615149462141454B312B
:1000F0001814127F1027454545393C4A49493001BB
:10010000710905033649494936064949291E003611
:100110003600000056360000081422410014141462
:100120001414004122140802015109063249794190
:100130003E7E1111117E7F494949363E414141229F
:100140007F4141221C7F494949417F090909013EFC
:100150004149497A7F0808087F00417F41002040DB
:10016000413F017F081422417F404040407F020C04
:10017000027F7F0408107F3E4141413E7F0909090B
:10018000063E4151215E7F091929464649494931B8
:1001900001017F01013F4040403F1F2040201F3FA1
:1001A0004038403F63140814630708700807615122
:1001B000494543007F4141000204081020004141AD
:1001C0007F0004020102044040404040000102045C
:1001D0000020545454787F484444383844444420E0
:1001E000384444487F3854545418087E0901020C9E
:1001F0005252523E7F0804047800447D4000204063
:10020000443D007F1028440000417F40007C0418DA
:1002100004787C0804047838444444387C1414146A
:1002200008081414187C7C0804040848545454200A
:10023000043F4440203C4040207C1C2040201C3C8B
:100240004030403C44281028440C5050503C4464FA
:10025000544C44000836410000007F000000413645
:1002600008001008081008000000000011241FBE3C
:10027000CFEFD0E4DEBFCDBF11E0A0E0B1E0E4E518
:10028000F9E000E00BBF02C007900D92AE32B1075B
:10029000D9F713E0AEE2B1E001C01D92AA33B10775
:1002A000E1F70E9404040C94A8040C940000149834
:1002B000662319F0129A90E015C01298FCCF47E01F
:1002C00050E0491B5109282F30E002C03595279591
:1002D0004A95E2F720FF02C0119A01C01198109AC6
:1002E00010989F5F983058F3149A089560E00E9428
:1002F0005701089561E00E9457010895CF93DF935D
:100300000C9A0B9A0A9A099A089A139A149A83ECEF
:1003100099E00197F1F700C0000013988BE594E491
:100320000197F1F700C00000139A149881E20E942F
:10033000760183E10E94760186E00E94760182ECDC
:100340000E94760180E20E94760189E00E94760197
:1003500080E80E94760180E40E947601C0E0D0E04F
:1003600004C080E00E947A012196C83F91E0D9073D
:10037000C0F388E00E9476018CE00E947601DF9154
:10038000CF91089580E80E94760180E40E94760172
:10039000109226031092270380E090E005C0FC0134
:1003A000E25DFE4F10820196883F21E09207B8F38C
:1003B0000895882311F080E201C084E20E94760152
:1003C0000895262F26952695269590E034E5239FBF
:1003D000800D911D1124442379F0677021E030E0F5
:1003E00002C0220F331F6A95E2F7FC01E25DFE4F67
:1003F0008081282B20830895677021E030E002C0BF
:10040000220F331F6A95E2F7FC01E25DFE4F209553
:100410008081282320830895EF92FF920F931F93EA
:10042000CF93DF93E82EF62E00E047C02E2D332722
:1004300027FD309520523109802F6F2D0E947A04BC
:10044000F901EE0FFF1FEE0FFF1FE20FF31FE80F82
:10045000F11DE457FF4FE491812F0E947A04F0E0F0
:1004600002C0F595E7958A95E2F7E0FF0AC0609132
:10047000270380912603610F41E0800F0E94E10174
:1004800009C06091270380912603610F40E0800F2F
:100490000E94E1011F5F01C010E0212F30E0CE017A
:1004A000880F991F880F991F880F991F8C1B9D0B10
:1004B000281739070CF4BACF0F5F202F30E0CF2D6B
:1004C000D0E0CE01880F991F880F991F8C0F9D1FB8
:1004D000281739070CF3E6E2F3E08F2D880F880F19
:1004E0008F0D9081890F8F5F8083843570F010921B
:1004F0002603E7E2F3E08F2D880F880F880F982FEF
:100500009F198081890F8F5F8083809127038033BB
:1005100020F01092260310922703DF91CF911F91B4
:100520000F91FF90EF9008951F93CF93DF93EC010D
:10053000162F04C02196612F0E940C028881811120
:10054000F9CFDF91CF911F91089580932603609397
:1005500027030895CF93DF9380E80E94760180E41B
:100560000E947601C0E0D0E007C0FE01E25DFE4FD0
:1005700080810E947A012196C83F81E0D807A8F3C4
:10058000DF91CF910895CF93C82F8A3019F48DE071
:100590000E94C3029091C00095FFFCCFC093C6009B
:1005A00080E090E0CF910895029718F481E090E008
:1005B00002C080E090E0019709F06DC080912803AF
:1005C0009091290301969093290380932803883EF4
:1005D000934080F080910401803349F489E3809353
:1005E00004018091050181508093050103C0815071
:1005F000809304010E94C20161E088E191E00E94C1
:10060000940260E082E30E94A50261E08091030110
:100610000E940C0260E088E30E94A50261E08091E4
:1006200002010E940C026FE080E00E94A50261E0DE
:100630008FE191E00E9494026FE082E30E94A502A4
:1006400061E0809101010E940C026FE088E30E944A
:10065000A50261E0809100010E940C026EE180E041
:100660000E94A50261E086E291E00E9494026EE1A0
:1006700082E30E94A50261E0809105010E940C02C4
:100680006EE188E30E94A50261E0809104010E946E
:100690000C020E94AA02089560930601709307015C
:1006A000809308019093090160932A0370932B03B0
:1006B00080932C0390932D0308958BE08093810009
:1006C0008DE790E0909389008093880082E080938A
:1006D0006F00109285001092840080910601909125
:1006E0000701A0910801B091090180932A0390931A
:1006F0002B03A0932C03B0932D038FB780688FBF7B
:10070000089510928100089581E080932E0308954A
:100710001F920F920FB60F9211240BB60F922F93C8
:100720003F934F935F936F937F938F939F93AF9379
:10073000BF93EF93FF9380912A0390912B03A09195
:100740002C03B0912D030197A109B10980932A03CD
:1007500090932B03A0932C03B0932D03892B8A2B0A
:100760008B2B91F40E9484038091060190910701E4
:10077000A0910801B091090180932A0390932B0363
:10078000A0932C03B0932D03FF91EF91BF91AF91F4
:100790009F918F917F916F915F914F913F912F9199
:1007A0000F900BBE0F900FBE0F901F9018950F93D8
:1007B0001F93CF93DF93B62FA72FF82FE92F022F88
:1007C000132FD42FC52F04C0062F172FD82FC92FB2
:1007D0006B2F7A2F8F2F9E2F202F312F4D2F5C2F95
:1007E0000E948604B02FA12FFD2FEC2F61157105FB
:1007F0008105910549F7602F712F8D2F9C2FDF9177
:10080000CF911F910F910895CF93DF9300D0CDB773
:10081000DEB78FEF81B912B814B885B9EFE2F3E013
:10082000FA83E983108281E090E0A0E0B0E0818368
:100830009283A383B48385839683A783B08784ED53
:1008400092E0928781870E947E0161E070E080E003
:1008500090E00E944C030E945D0300E010E037C06E
:10086000F801EE0FFF1FEC0FFD1FE180F280D701B2
:1008700015964D915D916D917C91189711968D9182
:100880009D910D90BC91A02D481759076A077B07D1
:1008900081F4D7011996ED91FC911A978C919927C3
:1008A00087FD90950995F70180831582168217823E
:1008B0001086F70185819681A781B0850196A11DDB
:1008C000B11D85839683A783B0870F5F1F4F0115E6
:1008D000110531F280912E038823E1F310922E034B
:1008E000FFE32DE083E0F15020408040E1F700C0BD
:1008F0000000B3CF991B79E004C0991F961708F048
:10090000961B881F7A95C9F780950895A1E21A2E43
:10091000AA1BBB1BFD010DC0AA1FBB1FEE1FFF1FA3
:10092000A217B307E407F50720F0A21BB30BE40BF3
:10093000F50B661F771F881F991F1A9469F760953A
:100940007095809590959B01AC01BD01CF010895F4
:04095000F894FFCF49
:100954003530303030330100000000000002000068
:100964000000C3020000000053434F523A200053DA
:0E09740054414D3A200054494D453A200000B0
:00000001FF
