:100000000C9436010C9455010C9455010C94550137
:100010000C9455010C9455010C9455010C94550108
:100020000C9455010C9455010C9455010C945501F8
:100030000C9455010C9477040C9455010C945501C3
:100040000C9455010C9455010C9455010C945501D8
:100050000C9455010C9455010C9455010C945501C8
:100060000C9455010C9455010C9455010C945501B8
:100070000C9455010C9455010C9455010C945501A8
:100080000C9455010C9455010C945501000000008E
:100090000000005F00000007000700147F147F14B9
:1000A000242A7F2A122313086462364955225000FD
:1000B00005030000001C2241000041221C0014081E
:1000C0003E081408083E08080050300000080808E0
:1000D0000808006060000020100804023E514945F5
:1000E0003E00427F400042615149462141454B312B
:1000F0001814127F1027454545393C4A49493001BB
:10010000710905033649494936064949291E003611
:100110003600000056360000081422410014141462
:100120001414004122140802015109063249794190
:100130003E7E1111117E7F494949363E414141229F
:100140007F4141221C7F494949417F090909013EFC
:100150004149497A7F0808087F00417F41002040DB
:10016000413F017F081422417F404040407F020C04
:10017000027F7F0408107F3E4141413E7F0909090B
:10018000063E4151215E7F091929464649494931B8
:1001900001017F01013F4040403F1F2040201F3FA1
:1001A0004038403F63140814630708700807615122
:1001B000494543007F4141000204081020004141AD
:1001C0007F0004020102044040404040000102045C
:1001D0000020545454787F484444383844444420E0
:1001E000384444487F3854545418087E0901020C9E
:1001F0005252523E7F0804047800447D4000204063
:10020000443D007F1028440000417F40007C0418DA
:1002100004787C0804047838444444387C1414146A
:1002200008081414187C7C0804040848545454200A
:10023000043F4440203C4040207C1C2040201C3C8B
:100240004030403C44281028440C5050503C4464FA
:10025000544C44000836410000007F000000413645
:1002600008001008081008000000000011241FBE3C
:10027000CFEFD0E4DEBFCDBF11E0A0E0B1E0E2E718
:10028000FBE000E00BBF02C007900D92AE32B10759
:10029000D9F713E0AEE2B1E001C01D92A534B10779
:1002A000E1F70E94F3040C94B7050C94000040E0C1
:1002B00050E00CC000002F5F3F4F02C020E030E054
:1002C000273063E03607B4F34F5F5F4F4817590795
:1002D000ACF308955E9888B95F9A00005F9882E059
:1002E00090E00E945701089581E00E946A010895FC
:1002F000813120F481580E946A01089581550E943D
:100300006A01089584E690E00E94570188E30E9404
:100310006A0186E00E946A018FE00E946A0181E022
:100320000E946A018AE090E00E94570108955E9A57
:1003300088B95F9A00005F9881E090E00E945701C1
:100340000895EF92FF920F931F93CF93DF93182F8F
:10035000EB010E9474010EC001E0010F812F0E9489
:1003600078017E018FEFE81AF80A88810E949701D0
:10037000102FE70188818111EFCFDF91CF911F917D
:100380000F91FF90EF9008951498662319F0129A38
:1003900090E015C01298FCCF47E050E0491B51098E
:1003A000282F30E002C0359527954A95E2F720FFC7
:1003B00002C0119A01C01198109A10989F5F98304E
:1003C00058F3149A089560E00E94C401089561E012
:1003D0000E94C4010895CF93DF930C9A0B9A0A9A56
:1003E000099A089A139A149A83EC99E00197F1F705
:1003F00000C0000013988BE594E40197F1F700C06A
:100400000000139A149881E20E94E30183E10E94A4
:10041000E30186E00E94E30182EC0E94E30180E2B6
:100420000E94E30189E00E94E30180E80E94E30169
:1004300080E40E94E301C0E0D0E004C080E00E94BC
:10044000E7012196C83F91E0D907C0F388E00E94F8
:10045000E3018CE00E94E301DF91CF91089580E8F1
:100460000E94E30180E40E94E301109226031092AF
:10047000270380E090E005C0FC01E25DFE4F1082A2
:100480000196883F21E09207B8F30895882311F080
:1004900080E201C084E20E94E3010895262F2695A0
:1004A0002695269590E034E5239F800D911D11241B
:1004B000442379F0677021E030E002C0220F331F3F
:1004C0006A95E2F7FC01E25DFE4F8081282B2083D4
:1004D0000895677021E030E002C0220F331F6A9553
:1004E000E2F7FC01E25DFE4F209580812823208306
:1004F0000895EF92FF920F931F93CF93DF93E82E0F
:10050000F62E00E047C02E2D332727FD30952052D0
:100510003109802F6F2D0E948905F901EE0FFF1F11
:10052000EE0FFF1FE20FF31FE80FF11DE457FF4F1F
:10053000E491812F0E948905F0E002C0F595E795CE
:100540008A95E2F7E0FF0AC06091270380912603B5
:10055000610F41E0800F0E944E0209C060912703A5
:1005600080912603610F40E0800F0E944E021F5FC2
:1005700001C010E0212F30E0CE01880F991F880FB5
:10058000991F880F991F8C1B9D0B281739070CF496
:10059000BACF0F5F202F30E0CF2DD0E0CE01880FF3
:1005A000991F880F991F8C0F9D1F281739070CF36F
:1005B000E6E2F3E08F2D880F880F8F0D9081890F71
:1005C0008F5F8083843570F010922603E7E2F3E0BA
:1005D0008F2D880F880F880F982F9F198081890F82
:1005E0008F5F808380912703803320F01092260351
:1005F00010922703DF91CF911F910F91FF90EF9001
:1006000008951F93CF93DF93EC01162F04C021961A
:10061000612F0E94790288818111F9CFDF91CF91FA
:100620001F91089580932603609327030895CF9325
:10063000DF9380E80E94E30180E40E94E301C0E0D0
:10064000D0E007C0FE01E25DFE4F80810E94E7011D
:100650002196C83F81E0D807A8F3DF91CF91089594
:10066000CF93C82F8A3019F48DE00E943003909107
:10067000C00095FFFCCFC093C60080E090E0CF9112
:100680000895029718F481E090E002C080E090E0C5
:10069000019709F06DC0809128039091290301967C
:1006A0009093290380932803883E934080F08091A3
:1006B0000501803349F489E38093050180910601A7
:1006C00081508093060103C08150809305010E94F0
:1006D0002F0261E089E191E00E94010360E082E382
:1006E0000E94120361E0809104010E94790260E09F
:1006F00088E30E94120361E0809103010E94790265
:100700006FE080E00E94120361E080E291E00E94CD
:1007100001036FE082E30E94120361E08091020115
:100720000E9479026FE088E30E94120361E08091E9
:1007300001010E9479026EE180E00E94120361E0F3
:1007400087E291E00E9401036EE182E30E941203BE
:1007500061E0809106010E9479026EE188E30E94C7
:10076000120361E0809105010E9479020E94170343
:1007700008958130910531F082309105C1F00097E4
:10078000D9F545C023B130E0209530952F7033273F
:1007900021303105A1F123B130E0209530952F7043
:1007A00033272230310599F582E090E030C023B143
:1007B00030E0209530952F7033272130310549F4F2
:1007C00023B130E0209530952F703327223031054A
:1007D000C9F423B130E0209530952F7033272130B4
:1007E0003105A9F023B130E0209530952F703327E3
:1007F0002230310561F409C080E090E008C082E059
:1008000090E005C083E090E002C084E090E0823098
:100810009105C1F034F4009759F08130910569F0E9
:10082000089583309105E9F08430910581F00895B1
:10083000809100010E9478010895809100010E943A
:1008400078010895809100010E947801089581E166
:10085000809300010E947401809100010E94780140
:10086000089581E0809300010E947401809100014D
:100870000E947801089560930701709308018093A6
:10088000090190930A0160932A0370932B038093CC
:100890002C0390932D0308958BE0809381008DE7C6
:1008A00090E0909389008093880082E080936F00AD
:1008B00010928500109284008091070190910801A8
:1008C000A0910901B0910A0180932A0390932B0310
:1008D000A0932C03B0932D038FB780688FBF08952A
:1008E00010928100089581E080932E0308951F9255
:1008F0000F920FB60F9211240BB60F922F933F93C6
:100900004F935F936F937F938F939F93AF93BF9317
:10091000EF93FF9380912A0390912B03A0912C03D6
:10092000B0912D030197A109B10980932A039093F7
:100930002B03A0932C03B0932D03892B8A2B8B2B95
:1009400091F40E9473048091070190910801A09195
:100950000901B0910A0180932A0390932B03A0937D
:100960002C03B0932D03FF91EF91BF91AF919F9115
:100970008F917F916F915F914F913F912F910F9048
:100980000BBE0F900FBE0F901F9018950F931F93E3
:10099000CF93DF93B62FA72FF82FE92F022F132F16
:1009A000D42FC52F04C0062F172FD82FC92F6B2F78
:1009B0007A2F8F2F9E2F202F312F4D2F5C2F0E94AB
:1009C0009505B02FA12FFD2FEC2F61157105810525
:1009D000910549F7602F712F8D2F9C2FDF91CF91BB
:1009E0001F910F910895CF93DF9300D000D0CDB722
:1009F000DEB78FEF81B912B814B885B987B918B8C6
:100A00008AB91BB8AAE3B3E0BA83A983EFE2F3E0A3
:100A1000FC83EB831C9241E050E060E070E01196B3
:100A20004D935D936D937C93149715964D935D93C1
:100A30006D937C93189789EB93E01A969C938E9311
:100A4000199710824183528363837483458356834D
:100A50006783708781E493E0928781870E94EB012E
:100A60000E94820161E070E080E090E00E943B041F
:100A70000E944C04E12CF12C38C0F701EE0FFF1F4F
:100A8000EC0FFD1F01811281D80115964D915D91EA
:100A90006D917C91189711968D919D910D90BC91BF
:100AA000A02D481759076A077B0781F4D8011996CA
:100AB000ED91FC911A978C91992787FD9095099556
:100AC000F80180831582168217821086F8018581CD
:100AD0009681A781B0850196A11DB11D858396835E
:100AE000A783B087FFEFEF1AFF0A22E0E216F104B6
:100AF00020F280912E038823E1F310922E038FE3DE
:100B00009DE0A3E081509040A040E1F700C00000CC
:100B1000B1CF991B79E004C0991F961708F0961B76
:100B2000881F7A95C9F780950895A1E21A2EAA1B0D
:100B3000BB1BFD010DC0AA1FBB1FEE1FFF1FA2178D
:100B4000B307E407F50720F0A21BB30BE40BF50B8A
:100B5000661F771F881F991F1A9469F76095709513
:100B6000809590959B01AC01BD01CF010895F8944B
:020B7000FFCFB5
:100B72001135303030303301000000000000020037
:100B820000000030030000000053434F523A20009F
:0E0B92005354414D3A200054494D453A20003D
:00000001FF
