:100000000C9436010C9455010C9455010C94550137
:100010000C9455010C9455010C9455010C94550108
:100020000C9455010C9455010C9455010C945501F8
:100030000C9455010C9461050C9455010C945501D8
:100040000C9455010C9455010C9455010C945501D8
:100050000C9455010C9455010C9455010C945501C8
:100060000C9455010C9455010C9455010C945501B8
:100070000C9455010C9455010C9455010C945501A8
:100080000C9455010C9455010C945501000000008E
:100090000000005F00000007000700147F147F14B9
:1000A000242A7F2A122313086462364955225000FD
:1000B00005030000001C2241000041221C0014081E
:1000C0003E081408083E08080050300000080808E0
:1000D0000808006060000020100804023E514945F5
:1000E0003E00427F400042615149462141454B312B
:1000F0001814127F1027454545393C4A49493001BB
:10010000710905033649494936064949291E003611
:100110003600000056360000081422410014141462
:100120001414004122140802015109063249794190
:100130003E7E1111117E7F494949363E414141229F
:100140007F4141221C7F494949417F090909013EFC
:100150004149497A7F0808087F00417F41002040DB
:10016000413F017F081422417F404040407F020C04
:10017000027F7F0408107F3E4141413E7F0909090B
:10018000063E4151215E7F091929464649494931B8
:1001900001017F01013F4040403F1F2040201F3FA1
:1001A0004038403F63140814630708700807615122
:1001B000494543007F4141000204081020004141AD
:1001C0007F0004020102044040404040000102045C
:1001D0000020545454787F484444383844444420E0
:1001E000384444487F3854545418087E0901020C9E
:1001F0005252523E7F0804047800447D4000204063
:10020000443D007F1028440000417F40007C0418DA
:1002100004787C0804047838444444387C1414146A
:1002200008081414187C7C0804040848545454200A
:10023000043F4440203C4040207C1C2040201C3C8B
:100240004030403C44281028440C5050503C4464FA
:10025000544C44000836410000007F000000413645
:1002600008001008081008000000000011241FBE3C
:10027000CFEFD0E4DEBFCDBF11E0A0E0B1E0E2E51A
:10028000FDE000E00BBF02C007900D92A835B1075A
:10029000D9F713E0A8E5B1E001C01D92A137B1077D
:1002A000E1F70E94DD050C94A7060C94000040E0E5
:1002B00050E00CC000002F5F3F4F02C020E030E054
:1002C000273063E03607B4F34F5F5F4F4817590795
:1002D000ACF308955E9888B95F9A00005F9882E059
:1002E00090E00E945701089581E00E946A010895FC
:1002F000813120F481580E946A01089581550E943D
:100300006A01089584E690E00E94570188E30E9404
:100310006A0186E00E946A018FE00E946A0181E022
:100320000E946A018AE090E00E94570108955E9A57
:1003300088B95F9A00005F9881E090E00E945701C1
:100340000895EF92FF920F931F93CF93DF93182F8F
:10035000EB010E9474010EC001E0010F812F0E9489
:1003600078017E018FEFE81AF80A88810E949701D0
:10037000102FE70188818111EFCFDF91CF911F917D
:100380000F91FF90EF9008950F931F93CF938830B4
:1003900090F48B01880F880F880F805C0E946A019F
:1003A000C0E007C0F801EC0FF11D80810E949701A9
:1003B000CF5FC830B8F3CF911F910F910895149873
:1003C000662319F0129A90E015C01298FCCF47E00E
:1003D00050E0491B5109282F30E002C03595279580
:1003E0004A95E2F720FF02C0119A01C01198109AB5
:1003F00010989F5F983058F3149A089560E00E9417
:10040000DF01089561E00E94DF010895CF93DF933B
:100410000C9A0B9A0A9A099A089A139A149A83ECDE
:1004200099E00197F1F700C0000013988BE594E480
:100430000197F1F700C00000139A149881E20E941E
:10044000FE0183E10E94FE0186E00E94FE0182EC33
:100450000E94FE0180E20E94FE0189E00E94FE01EE
:1004600080E80E94FE0180E40E94FE01C0E0D0E02E
:1004700004C080E00E9402022196C83F91E0D907A3
:10048000C0F388E00E94FE018CE00E94FE01DF9133
:10049000CF91089580E80E94FE0180E40E94FE0151
:1004A000109250031092510380E090E005C0FC01CF
:1004B000E85AFE4F10820196883F21E09207B8F378
:1004C0000895882311F080E201C084E20E94FE01B9
:1004D0000895262F26952695269590E034E5239FAE
:1004E000800D911D1124442379F0677021E030E0E4
:1004F00002C0220F331F6A95E2F7FC01E85AFE4F53
:100500008081282B20830895677021E030E002C0AD
:10051000220F331F6A95E2F7FC01E85AFE4F20953F
:100520008081282320830895EF92FF920F931F93D9
:10053000CF93DF93E82EF62E00E047C02E2D332711
:1005400027FD309520523109802F6F2D0E947906AA
:10055000F901EE0FFF1FEE0FFF1FE20FF31FE80F71
:10056000F11DE457FF4FE491812F0E947906F0E0DE
:1005700002C0F595E7958A95E2F7E0FF0AC0609121
:10058000510380915003610F41E0800F0E94690286
:1005900009C06091510380915003610F40E0800FCA
:1005A0000E9469021F5F01C010E0212F30E0CE01E0
:1005B000880F991F880F991F880F991F8C1B9D0BFF
:1005C000281739070CF4BACF0F5F202F30E0CF2D5A
:1005D000D0E0CE01880F991F880F991F8C0F9D1FA7
:1005E000281739070CF3E0E5F3E08F2D880F880F0B
:1005F0008F0D9081890F8F5F8083843570F010920A
:100600005003E1E5F3E08F2D880F880F880F982FB6
:100610009F198081890F8F5F808380915103803380
:1006200020F01092500310925103DF91CF911F914F
:100630000F91FF90EF9008951F93CF93DF93EC01FC
:10064000162F04C02196612F0E9494028881811187
:10065000F9CFDF91CF911F9108958093500360935C
:1006600051030895CF93DF9380E80E94FE0180E458
:100670000E94FE01C0E0D0E007C0FE01E85AFE4F34
:1006800080810E9402022196C83F81E0D807A8F32A
:10069000DF91CF910895CF93C82F8A3019F48DE060
:1006A0000E944B039091C00095FFFCCFC093C60001
:1006B00080E090E0CF910895CF93DF93EC018230FA
:1006C000910531F134F4009759F08130910559F0DA
:1006D0003AC08330910549F18430910559F133C016
:1006E000C1E0D0E038C080910D01803321F48091C9
:1006F0000E01803359F180915503882329F010921F
:100700005503C2E0D0E027C08F5F8093550323C01C
:1007100080915403882329F010925403C1E0D0E063
:100720001AC08F5F8093540316C01A9914C0C4E096
:10073000D0E011C01A9B0FC01A9B0DC0199B0BC0B3
:10074000189B09C006C0C0E0D0E005C0C3E0D0E0FF
:1007500002C0C1E0D0E0C330D10509F498C0C43074
:10076000D10509F4B0C0C230D10509F0D5C08091DF
:100770005203909153038230910588F020910D012E
:10078000203369F4109253031092520380910E01AA
:10079000815080930E0189E380930D0114C0823053
:1007A000910560F020910D01203341F01092530328
:1007B00010925203215020930D0105C00196909391
:1007C00053038093520380910B01893349F4809144
:1007D0000C018F5F80930C0180E380930B0105C0B7
:1007E000893319F08F5F80930B010E944A0261E008
:1007F00081E291E00E941C0360E082E30E942D03ED
:1008000061E080910C010E94940260E088E30E9404
:100810002D0361E080910B010E9494026FE080E063
:100820000E942D0361E088E291E00E941C036FE0CA
:1008300082E30E942D0361E080910A010E949402EC
:100840006FE088E30E942D0361E0809109010E941E
:1008500094026EE180E00E942D0361E08FE291E05E
:100860000E941C036EE182E30E942D0361E08091EF
:100870000E010E9494026EE188E30E942D0361E064
:1008800080910D010E9494020E94320345C00E9493
:100890004A0261E086E391E00E941C036AE089E17C
:1008A0000E942D0362E080910C010E9494026AE094
:1008B00088E20E942D0362E080910B010E94940265
:1008C0000E94320329C00E944A0261E083E491E061
:1008D0000E941C036AE084E10E942D0362E08EE422
:1008E00091E00E941C036EE189E10E942D0362E009
:1008F00084E591E00E941C030E94320381E380930F
:100900000E0180E380930D01109255031092540361
:100910001092530310925203CE01DF91CF910895AC
:10092000CF93DF93EC0182309105F9F03CF400970E
:1009300009F44AC08130910529F038C0853091050D
:10094000C4F134C083B190E0809590958F70992761
:10095000019791F183B190E0809590958F709927E0
:10096000029791F5C2E0D0E02FC083B190E080956E
:1009700090958F709927019741F483B190E080950D
:1009800090958F7099270297D1F483B190E080956C
:1009900090958F7099270197B9F083B190E0809579
:1009A00090958F709927029779F40CC0C0E0D0E041
:1009B0000BC0C1E0D0E008C0C2E0D0E005C0C3E099
:1009C000D0E002C0C4E0D0E0C130D105B1F01CF4E9
:1009D000209741F036C0C330D10531F1C430D10584
:1009E000A9F02FC0809108010E94780180E090E07A
:1009F0000E949701C1E0D0E024C0809108010E94CC
:100A0000780180E090E00E9497011BC081E1809313
:100A100008010E947401809108010E94780180E021
:100A200090E00E9497010DC081E0809308010E9430
:100A30007401809108010E94780180E090E00E949A
:100A40009701CE01DF91CF91089560930F017093CC
:100A500010018093110190931201609356037093DB
:100A60005703809358039093590308958BE0809324
:100A700081008DE790E0909389008093880082E068
:100A800080936F00109285001092840080910F0176
:100A900090911001A0911101B09112018093560321
:100AA00090935703A0935803B09359038FB780686E
:100AB0008FBF089510928100089581E080935A03BA
:100AC00008951F920F920FB60F9211240BB60F923A
:100AD0002F933F934F935F936F937F938F939F9346
:100AE000AF93BF93EF93FF93809156039091570379
:100AF000A0915803B09159030197A109B1098093BE
:100B0000560390935703A0935803B0935903892B2E
:100B10008A2B8B2B91F40E945D0580910F0190919F
:100B20001001A0911101B09112018093560390938E
:100B30005703A0935803B0935903FF91EF91BF91CE
:100B4000AF919F918F917F916F915F914F913F9165
:100B50002F910F900BBE0F900FBE0F901F90189506
:100B60000F931F93CF93DF93B62FA72FF82FE92F63
:100B7000022F132FD42FC52F04C0062F172FD82FC5
:100B8000C92F6B2F7A2F8F2F9E2F202F312F4D2F74
:100B90005C2F0E948506B02FA12FFD2FEC2F611531
:100BA00071058105910549F7602F712F8D2F9C2FBD
:100BB000DF91CF911F910F910895CF93DF9300D0D4
:100BC00000D0CDB7DEB78FEF81B912B814B885B9B0
:100BD00087B918B88AB91BB8A6E6B3E0BA83A98367
:100BE000EBE5F3E0FC83EB831C9241E050E060E036
:100BF00070E011964D935D936D937C9314971596C9
:100C00004D935D936D937C93189780E994E01A96C9
:100C10009C938E93199710824183528363837483CC
:100C200045835683678370878CE593E0928781873D
:100C30000E9406020E94820161E070E080E090E084
:100C40000E9425050E94360560E071E080E090E09A
:100C50000E94C401E12CF12C38C0F701EE0FFF1FF8
:100C6000EC0FFD1F01811281D80115964D915D9108
:100C70006D917C91189711968D919D910D90BC91DD
:100C8000A02D481759076A077B0781F4D8011996E8
:100C9000ED91FC911A978C91992787FD9095099574
:100CA000F80180831582168217821086F8018581EB
:100CB0009681A781B0850196A11DB11D858396837C
:100CC000A783B087FFEFEF1AFF0A22E0E216F104D4
:100CD00020F280915A038823E1F310925A038FE3A4
:100CE0009DE0A3E081509040A040E1F700C00000EB
:100CF000B1CF991B79E004C0991F961708F0961B95
:100D0000881F7A95C9F780950895A1E21A2EAA1B2B
:100D1000BB1BFD010DC0AA1FBB1FEE1FFF1FA217AB
:100D2000B307E407F50720F0A21BB30BE40BF50BA8
:100D3000661F771F881F991F1A9469F76095709531
:100D4000809590959B01AC01BD01CF010895F89469
:020D5000FFCFD3
:100D5200180C161D1F160C181135303030303101A9
:100D620000000000000002000000004B0300000031
:100D72000053434F523A20005354414D3A200054FD
:100D8200494D453A200046494E414C2053434F526B
:100D9200453A00596F752072656164793F004C4590
:080DA20054277300474F2100A4
:00000001FF
